{
  "_format": "hh-sol-artifact-1",
  "contractName": "JobPortal",
  "sourceName": "contracts/Skilled.sol",
  "abi": [
    {
      "inputs": [],
      "stateMutability": "nonpayable",
      "type": "constructor"
    },
    {
      "anonymous": false,
      "inputs": [
        {
          "indexed": true,
          "internalType": "address",
          "name": "provider",
          "type": "address"
        },
        {
          "indexed": false,
          "internalType": "uint256",
          "name": "jobId",
          "type": "uint256"
        },
        {
          "indexed": false,
          "internalType": "string",
          "name": "title",
          "type": "string"
        },
        {
          "indexed": false,
          "internalType": "string",
          "name": "location",
          "type": "string"
        },
        {
          "indexed": false,
          "internalType": "string",
          "name": "salary",
          "type": "string"
        },
        {
          "indexed": false,
          "internalType": "string",
          "name": "description",
          "type": "string"
        },
        {
          "indexed": false,
          "internalType": "uint256",
          "name": "timestamp",
          "type": "uint256"
        }
      ],
      "name": "JobAdded",
      "type": "event"
    },
    {
      "anonymous": false,
      "inputs": [
        {
          "indexed": false,
          "internalType": "uint256",
          "name": "providerId",
          "type": "uint256"
        },
        {
          "indexed": false,
          "internalType": "string",
          "name": "name",
          "type": "string"
        },
        {
          "indexed": false,
          "internalType": "address",
          "name": "owner",
          "type": "address"
        }
      ],
      "name": "ProviderRegistered",
      "type": "event"
    },
    {
      "anonymous": false,
      "inputs": [
        {
          "indexed": false,
          "internalType": "uint256",
          "name": "workerId",
          "type": "uint256"
        },
        {
          "indexed": false,
          "internalType": "string",
          "name": "name",
          "type": "string"
        },
        {
          "indexed": false,
          "internalType": "address",
          "name": "owner",
          "type": "address"
        }
      ],
      "name": "WorkerRegistered",
      "type": "event"
    },
    {
      "inputs": [
        {
          "internalType": "string",
          "name": "_title",
          "type": "string"
        },
        {
          "internalType": "string",
          "name": "_location",
          "type": "string"
        },
        {
          "internalType": "string",
          "name": "_salary",
          "type": "string"
        },
        {
          "internalType": "string",
          "name": "_description",
          "type": "string"
        }
      ],
      "name": "addJob",
      "outputs": [],
      "stateMutability": "nonpayable",
      "type": "function"
    },
    {
      "inputs": [],
      "name": "getAllProvider",
      "outputs": [
        {
          "internalType": "address[]",
          "name": "",
          "type": "address[]"
        }
      ],
      "stateMutability": "view",
      "type": "function"
    },
    {
      "inputs": [],
      "name": "getAllWorker",
      "outputs": [
        {
          "internalType": "address[]",
          "name": "",
          "type": "address[]"
        }
      ],
      "stateMutability": "view",
      "type": "function"
    },
    {
      "inputs": [],
      "name": "getJobs",
      "outputs": [
        {
          "components": [
            {
              "internalType": "uint256",
              "name": "id",
              "type": "uint256"
            },
            {
              "internalType": "string",
              "name": "title",
              "type": "string"
            },
            {
              "internalType": "string",
              "name": "location",
              "type": "string"
            },
            {
              "internalType": "string",
              "name": "salary",
              "type": "string"
            },
            {
              "internalType": "string",
              "name": "description",
              "type": "string"
            },
            {
              "internalType": "bool",
              "name": "isActive",
              "type": "bool"
            },
            {
              "internalType": "uint256",
              "name": "timestamp",
              "type": "uint256"
            }
          ],
          "internalType": "struct JobPortal.Job[]",
          "name": "",
          "type": "tuple[]"
        }
      ],
      "stateMutability": "view",
      "type": "function"
    },
    {
      "inputs": [
        {
          "internalType": "address",
          "name": "_walletAddress",
          "type": "address"
        }
      ],
      "name": "getProvider",
      "outputs": [
        {
          "internalType": "bool",
          "name": "found",
          "type": "bool"
        },
        {
          "internalType": "uint256",
          "name": "_id",
          "type": "uint256"
        },
        {
          "internalType": "string",
          "name": "_name",
          "type": "string"
        },
        {
          "internalType": "string",
          "name": "_email",
          "type": "string"
        },
        {
          "internalType": "address",
          "name": "__walletAddress",
          "type": "address"
        },
        {
          "internalType": "uint256",
          "name": "_timestamp",
          "type": "uint256"
        }
      ],
      "stateMutability": "view",
      "type": "function"
    },
    {
      "inputs": [
        {
          "internalType": "address",
          "name": "_walletAddress",
          "type": "address"
        }
      ],
      "name": "getWorker",
      "outputs": [
        {
          "internalType": "bool",
          "name": "found",
          "type": "bool"
        },
        {
          "internalType": "string",
          "name": "_name",
          "type": "string"
        },
        {
          "internalType": "string",
          "name": "_email",
          "type": "string"
        },
        {
          "internalType": "string",
          "name": "_experience",
          "type": "string"
        },
        {
          "internalType": "string",
          "name": "_skills",
          "type": "string"
        },
        {
          "internalType": "address",
          "name": "__walletAddress",
          "type": "address"
        },
        {
          "internalType": "uint256",
          "name": "_timestamp",
          "type": "uint256"
        }
      ],
      "stateMutability": "view",
      "type": "function"
    },
    {
      "inputs": [
        {
          "internalType": "uint256",
          "name": "_id",
          "type": "uint256"
        },
        {
          "internalType": "bool",
          "name": "_isActive",
          "type": "bool"
        }
      ],
      "name": "jobStateChange",
      "outputs": [],
      "stateMutability": "nonpayable",
      "type": "function"
    },
    {
      "inputs": [
        {
          "internalType": "address",
          "name": "",
          "type": "address"
        },
        {
          "internalType": "uint256",
          "name": "",
          "type": "uint256"
        }
      ],
      "name": "jobs",
      "outputs": [
        {
          "internalType": "uint256",
          "name": "id",
          "type": "uint256"
        },
        {
          "internalType": "string",
          "name": "title",
          "type": "string"
        },
        {
          "internalType": "string",
          "name": "location",
          "type": "string"
        },
        {
          "internalType": "string",
          "name": "salary",
          "type": "string"
        },
        {
          "internalType": "string",
          "name": "description",
          "type": "string"
        },
        {
          "internalType": "bool",
          "name": "isActive",
          "type": "bool"
        },
        {
          "internalType": "uint256",
          "name": "timestamp",
          "type": "uint256"
        }
      ],
      "stateMutability": "view",
      "type": "function"
    },
    {
      "inputs": [],
      "name": "nextProviderId",
      "outputs": [
        {
          "internalType": "uint256",
          "name": "",
          "type": "uint256"
        }
      ],
      "stateMutability": "view",
      "type": "function"
    },
    {
      "inputs": [],
      "name": "nextWorkerId",
      "outputs": [
        {
          "internalType": "uint256",
          "name": "",
          "type": "uint256"
        }
      ],
      "stateMutability": "view",
      "type": "function"
    },
    {
      "inputs": [
        {
          "internalType": "address",
          "name": "",
          "type": "address"
        }
      ],
      "name": "providers",
      "outputs": [
        {
          "internalType": "uint256",
          "name": "id",
          "type": "uint256"
        },
        {
          "internalType": "string",
          "name": "name",
          "type": "string"
        },
        {
          "internalType": "string",
          "name": "email",
          "type": "string"
        },
        {
          "internalType": "uint256",
          "name": "timestamp",
          "type": "uint256"
        },
        {
          "internalType": "address",
          "name": "walletAddress",
          "type": "address"
        }
      ],
      "stateMutability": "view",
      "type": "function"
    },
    {
      "inputs": [
        {
          "internalType": "string",
          "name": "_name",
          "type": "string"
        },
        {
          "internalType": "string",
          "name": "_email",
          "type": "string"
        },
        {
          "internalType": "address",
          "name": "_walletAddress",
          "type": "address"
        }
      ],
      "name": "registerProvider",
      "outputs": [],
      "stateMutability": "nonpayable",
      "type": "function"
    },
    {
      "inputs": [
        {
          "internalType": "string",
          "name": "_name",
          "type": "string"
        },
        {
          "internalType": "string",
          "name": "_email",
          "type": "string"
        },
        {
          "internalType": "string",
          "name": "_experience",
          "type": "string"
        },
        {
          "internalType": "string",
          "name": "_skills",
          "type": "string"
        },
        {
          "internalType": "address",
          "name": "_walletAddress",
          "type": "address"
        }
      ],
      "name": "registerWorker",
      "outputs": [],
      "stateMutability": "nonpayable",
      "type": "function"
    },
    {
      "inputs": [
        {
          "internalType": "address",
          "name": "",
          "type": "address"
        }
      ],
      "name": "workers",
      "outputs": [
        {
          "internalType": "uint256",
          "name": "id",
          "type": "uint256"
        },
        {
          "internalType": "string",
          "name": "name",
          "type": "string"
        },
        {
          "internalType": "string",
          "name": "email",
          "type": "string"
        },
        {
          "internalType": "string",
          "name": "experience",
          "type": "string"
        },
        {
          "internalType": "string",
          "name": "skills",
          "type": "string"
        },
        {
          "internalType": "uint256",
          "name": "timestamp",
          "type": "uint256"
        },
        {
          "internalType": "address",
          "name": "walletAddress",
          "type": "address"
        }
      ],
      "stateMutability": "view",
      "type": "function"
    }
  ],
  "bytecode": "0x608060405234801561001057600080fd5b50336000806101000a81548173ffffffffffffffffffffffffffffffffffffffff021916908373ffffffffffffffffffffffffffffffffffffffff160217905550613220806100606000396000f3fe608060405234801561001057600080fd5b50600436106100ea5760003560e01c806355f21eb71161008c5780636f0d7116116100665780636f0d71161461025a5780636f82f8fd14610276578063c011b1c3146102ac578063c84a4922146102e2576100ea565b806355f21eb7146101e957806368581ebd1461021e5780636bfd04151461023c576100ea565b80631a7e1acc116100c85780631a7e1acc1461015d5780634048a2571461017957806351a8dbcf146101af5780635351e015146101cd576100ea565b806304e70ca6146100ef5780630787bc271461010d57806316f665d114610141575b600080fd5b6100f7610300565b6040516101049190611f9e565b60405180910390f35b61012760048036038101906101229190612000565b61038e565b6040516101389594939291906120e5565b60405180910390f35b61015b6004803603810190610156919061227b565b6104f4565b005b6101776004803603810190610172919061236a565b6107cc565b005b610193600480360381019061018e9190612000565b610a11565b6040516101a697969594939291906123aa565b60405180910390f35b6101b7610c93565b6040516101c49190612435565b60405180910390f35b6101e760048036038101906101e29190612450565b610c99565b005b61020360048036038101906101fe9190612000565b610f26565b6040516102159695949392919061254a565b60405180910390f35b6102266111c1565b6040516102339190612794565b60405180910390f35b610244611559565b6040516102519190611f9e565b60405180910390f35b610274600480360381019061026f91906127b6565b6115e7565b005b610290600480360381019061028b919061288d565b61184a565b6040516102a397969594939291906128cd565b60405180910390f35b6102c660048036038101906102c19190612000565b611ad6565b6040516102d99796959493929190612958565b60405180910390f35b6102ea611ea8565b6040516102f79190612435565b60405180910390f35b6060600280548060200260200160405190810160405280929190818152602001828054801561038457602002820191906000526020600020905b8160009054906101000a900473ffffffffffffffffffffffffffffffffffffffff1673ffffffffffffffffffffffffffffffffffffffff168152602001906001019080831161033a575b5050505050905090565b60036020528060005260406000206000915090508060000154908060010180546103b790612a12565b80601f01602080910402602001604051908101604052809291908181526020018280546103e390612a12565b80156104305780601f1061040557610100808354040283529160200191610430565b820191906000526020600020905b81548152906001019060200180831161041357829003601f168201915b50505050509080600201805461044590612a12565b80601f016020809104026020016040519081016040528092919081815260200182805461047190612a12565b80156104be5780601f10610493576101008083540402835291602001916104be565b820191906000526020600020905b8154815290600101906020018083116104a157829003601f168201915b5050505050908060030154908060040160009054906101000a900473ffffffffffffffffffffffffffffffffffffffff16905085565b60008054906101000a900473ffffffffffffffffffffffffffffffffffffffff1673ffffffffffffffffffffffffffffffffffffffff163373ffffffffffffffffffffffffffffffffffffffff1614610582576040517f08c379a000000000000000000000000000000000000000000000000000000000815260040161057990612a8f565b60405180910390fd5b6000600360008373ffffffffffffffffffffffffffffffffffffffff1673ffffffffffffffffffffffffffffffffffffffff1681526020019081526020016000206000015414610607576040517f08c379a00000000000000000000000000000000000000000000000000000000081526004016105fe90612afb565b60405180910390fd5b6006600081548092919061061a90612b4a565b91905055506040518060a0016040528060065481526020018481526020018381526020014281526020018273ffffffffffffffffffffffffffffffffffffffff16815250600360008373ffffffffffffffffffffffffffffffffffffffff1673ffffffffffffffffffffffffffffffffffffffff1681526020019081526020016000206000820151816000015560208201518160010190816106bc9190612d3e565b5060408201518160020190816106d29190612d3e565b506060820151816003015560808201518160040160006101000a81548173ffffffffffffffffffffffffffffffffffffffff021916908373ffffffffffffffffffffffffffffffffffffffff1602179055509050506001819080600181540180825580915050600190039060005260206000200160009091909190916101000a81548173ffffffffffffffffffffffffffffffffffffffff021916908373ffffffffffffffffffffffffffffffffffffffff1602179055507fc18d7c6898e7069714655160c92f5b464967bd122287b01ed2c0331d086e0c1860065484836040516107bf93929190612e10565b60405180910390a1505050565b6000600560003373ffffffffffffffffffffffffffffffffffffffff1673ffffffffffffffffffffffffffffffffffffffff1681526020019081526020016000208054905011610851576040517f08c379a000000000000000000000000000000000000000000000000000000000815260040161084890612e9a565b60405180910390fd5b600560003373ffffffffffffffffffffffffffffffffffffffff1673ffffffffffffffffffffffffffffffffffffffff168152602001908152602001600020805490508211156108d6576040517f08c379a00000000000000000000000000000000000000000000000000000000081526004016108cd90612f06565b60405180910390fd5b6000600560003373ffffffffffffffffffffffffffffffffffffffff1673ffffffffffffffffffffffffffffffffffffffff1681526020019081526020016000206001846109249190612f26565b8154811061093557610934612f5a565b5b90600052602060002090600702016000015403610987576040517f08c379a000000000000000000000000000000000000000000000000000000000815260040161097e90612fd5565b60405180910390fd5b80600560003373ffffffffffffffffffffffffffffffffffffffff1673ffffffffffffffffffffffffffffffffffffffff1681526020019081526020016000206001846109d49190612f26565b815481106109e5576109e4612f5a565b5b906000526020600020906007020160050160006101000a81548160ff0219169083151502179055505050565b6004602052806000526040600020600091509050806000015490806001018054610a3a90612a12565b80601f0160208091040260200160405190810160405280929190818152602001828054610a6690612a12565b8015610ab35780601f10610a8857610100808354040283529160200191610ab3565b820191906000526020600020905b815481529060010190602001808311610a9657829003601f168201915b505050505090806002018054610ac890612a12565b80601f0160208091040260200160405190810160405280929190818152602001828054610af490612a12565b8015610b415780601f10610b1657610100808354040283529160200191610b41565b820191906000526020600020905b815481529060010190602001808311610b2457829003601f168201915b505050505090806003018054610b5690612a12565b80601f0160208091040260200160405190810160405280929190818152602001828054610b8290612a12565b8015610bcf5780601f10610ba457610100808354040283529160200191610bcf565b820191906000526020600020905b815481529060010190602001808311610bb257829003601f168201915b505050505090806004018054610be490612a12565b80601f0160208091040260200160405190810160405280929190818152602001828054610c1090612a12565b8015610c5d5780601f10610c3257610100808354040283529160200191610c5d565b820191906000526020600020905b815481529060010190602001808311610c4057829003601f168201915b5050505050908060050154908060060160009054906101000a900473ffffffffffffffffffffffffffffffffffffffff16905087565b60065481565b60008054906101000a900473ffffffffffffffffffffffffffffffffffffffff1673ffffffffffffffffffffffffffffffffffffffff163373ffffffffffffffffffffffffffffffffffffffff1614610d27576040517f08c379a0000000000000000000000000000000000000000000000000000000008152600401610d1e90612a8f565b60405180910390fd5b60076000815480929190610d3a90612b4a565b91905055506040518060e0016040528060075481526020018681526020018581526020018481526020018381526020014281526020018273ffffffffffffffffffffffffffffffffffffffff16815250600460008373ffffffffffffffffffffffffffffffffffffffff1673ffffffffffffffffffffffffffffffffffffffff168152602001908152602001600020600082015181600001556020820151816001019081610de89190612d3e565b506040820151816002019081610dfe9190612d3e565b506060820151816003019081610e149190612d3e565b506080820151816004019081610e2a9190612d3e565b5060a0820151816005015560c08201518160060160006101000a81548173ffffffffffffffffffffffffffffffffffffffff021916908373ffffffffffffffffffffffffffffffffffffffff1602179055509050506002819080600181540180825580915050600190039060005260206000200160009091909190916101000a81548173ffffffffffffffffffffffffffffffffffffffff021916908373ffffffffffffffffffffffffffffffffffffffff1602179055507fe1968ed708177421106ab22cb993650a9e3bd793ebe1a805a1a49423cf050e396006548683604051610f1793929190612e10565b60405180910390a15050505050565b6000806060806000806000600360008973ffffffffffffffffffffffffffffffffffffffff1673ffffffffffffffffffffffffffffffffffffffff1681526020019081526020016000206000015403610fb4576040517f08c379a0000000000000000000000000000000000000000000000000000000008152600401610fab90613041565b60405180910390fd5b6000600360008973ffffffffffffffffffffffffffffffffffffffff1673ffffffffffffffffffffffffffffffffffffffff1681526020019081526020016000206040518060a00160405290816000820154815260200160018201805461101a90612a12565b80601f016020809104026020016040519081016040528092919081815260200182805461104690612a12565b80156110935780601f1061106857610100808354040283529160200191611093565b820191906000526020600020905b81548152906001019060200180831161107657829003601f168201915b505050505081526020016002820180546110ac90612a12565b80601f01602080910402602001604051908101604052809291908181526020018280546110d890612a12565b80156111255780601f106110fa57610100808354040283529160200191611125565b820191906000526020600020905b81548152906001019060200180831161110857829003601f168201915b50505050508152602001600382015481526020016004820160009054906101000a900473ffffffffffffffffffffffffffffffffffffffff1673ffffffffffffffffffffffffffffffffffffffff1673ffffffffffffffffffffffffffffffffffffffff168152505090508060000151955080602001519450806040015193508060800151925080606001519150600196505091939550919395565b60606000600560003373ffffffffffffffffffffffffffffffffffffffff1673ffffffffffffffffffffffffffffffffffffffff1681526020019081526020016000208054905011611248576040517f08c379a000000000000000000000000000000000000000000000000000000000815260040161123f90612e9a565b60405180910390fd5b600560003373ffffffffffffffffffffffffffffffffffffffff1673ffffffffffffffffffffffffffffffffffffffff168152602001908152602001600020805480602002602001604051908101604052809291908181526020016000905b8282101561155057838290600052602060002090600702016040518060e0016040529081600082015481526020016001820180546112e490612a12565b80601f016020809104026020016040519081016040528092919081815260200182805461131090612a12565b801561135d5780601f106113325761010080835404028352916020019161135d565b820191906000526020600020905b81548152906001019060200180831161134057829003601f168201915b5050505050815260200160028201805461137690612a12565b80601f01602080910402602001604051908101604052809291908181526020018280546113a290612a12565b80156113ef5780601f106113c4576101008083540402835291602001916113ef565b820191906000526020600020905b8154815290600101906020018083116113d257829003601f168201915b5050505050815260200160038201805461140890612a12565b80601f016020809104026020016040519081016040528092919081815260200182805461143490612a12565b80156114815780601f1061145657610100808354040283529160200191611481565b820191906000526020600020905b81548152906001019060200180831161146457829003601f168201915b5050505050815260200160048201805461149a90612a12565b80601f01602080910402602001604051908101604052809291908181526020018280546114c690612a12565b80156115135780601f106114e857610100808354040283529160200191611513565b820191906000526020600020905b8154815290600101906020018083116114f657829003601f168201915b505050505081526020016005820160009054906101000a900460ff16151515158152602001600682015481525050815260200190600101906112a7565b50505050905090565b606060018054806020026020016040519081016040528092919081815260200182805480156115dd57602002820191906000526020600020905b8160009054906101000a900473ffffffffffffffffffffffffffffffffffffffff1673ffffffffffffffffffffffffffffffffffffffff1681526020019060010190808311611593575b5050505050905090565b6000600360003373ffffffffffffffffffffffffffffffffffffffff1673ffffffffffffffffffffffffffffffffffffffff168152602001908152602001600020600001540361166c576040517f08c379a0000000000000000000000000000000000000000000000000000000008152600401611663906130ad565b60405180910390fd5b60006001600560003373ffffffffffffffffffffffffffffffffffffffff1673ffffffffffffffffffffffffffffffffffffffff168152602001908152602001600020805490506116bd91906130cd565b9050600560003373ffffffffffffffffffffffffffffffffffffffff1673ffffffffffffffffffffffffffffffffffffffff1681526020019081526020016000206040518060e0016040528083815260200187815260200186815260200185815260200184815260200160011515815260200142815250908060018154018082558091505060019003906000526020600020906007020160009091909190915060008201518160000155602082015181600101908161177c9190612d3e565b5060408201518160020190816117929190612d3e565b5060608201518160030190816117a89190612d3e565b5060808201518160040190816117be9190612d3e565b5060a08201518160050160006101000a81548160ff02191690831515021790555060c0820151816006015550503373ffffffffffffffffffffffffffffffffffffffff167f2435eef6efb5586c6bba43e61ec589f6fffeb354239bf6fb210cef0b75f5174882878787874260405161183b96959493929190613101565b60405180910390a25050505050565b6005602052816000526040600020818154811061186657600080fd5b90600052602060002090600702016000915091505080600001549080600101805461189090612a12565b80601f01602080910402602001604051908101604052809291908181526020018280546118bc90612a12565b80156119095780601f106118de57610100808354040283529160200191611909565b820191906000526020600020905b8154815290600101906020018083116118ec57829003601f168201915b50505050509080600201805461191e90612a12565b80601f016020809104026020016040519081016040528092919081815260200182805461194a90612a12565b80156119975780601f1061196c57610100808354040283529160200191611997565b820191906000526020600020905b81548152906001019060200180831161197a57829003601f168201915b5050505050908060030180546119ac90612a12565b80601f01602080910402602001604051908101604052809291908181526020018280546119d890612a12565b8015611a255780601f106119fa57610100808354040283529160200191611a25565b820191906000526020600020905b815481529060010190602001808311611a0857829003601f168201915b505050505090806004018054611a3a90612a12565b80601f0160208091040260200160405190810160405280929190818152602001828054611a6690612a12565b8015611ab35780601f10611a8857610100808354040283529160200191611ab3565b820191906000526020600020905b815481529060010190602001808311611a9657829003601f168201915b5050505050908060050160009054906101000a900460ff16908060060154905087565b60006060806060806000806000600460008a73ffffffffffffffffffffffffffffffffffffffff1673ffffffffffffffffffffffffffffffffffffffff1681526020019081526020016000206000015403611b66576040517f08c379a0000000000000000000000000000000000000000000000000000000008152600401611b5d906131ca565b60405180910390fd5b6000600460008a73ffffffffffffffffffffffffffffffffffffffff1673ffffffffffffffffffffffffffffffffffffffff1681526020019081526020016000206040518060e001604052908160008201548152602001600182018054611bcc90612a12565b80601f0160208091040260200160405190810160405280929190818152602001828054611bf890612a12565b8015611c455780601f10611c1a57610100808354040283529160200191611c45565b820191906000526020600020905b815481529060010190602001808311611c2857829003601f168201915b50505050508152602001600282018054611c5e90612a12565b80601f0160208091040260200160405190810160405280929190818152602001828054611c8a90612a12565b8015611cd75780601f10611cac57610100808354040283529160200191611cd7565b820191906000526020600020905b815481529060010190602001808311611cba57829003601f168201915b50505050508152602001600382018054611cf090612a12565b80601f0160208091040260200160405190810160405280929190818152602001828054611d1c90612a12565b8015611d695780601f10611d3e57610100808354040283529160200191611d69565b820191906000526020600020905b815481529060010190602001808311611d4c57829003601f168201915b50505050508152602001600482018054611d8290612a12565b80601f0160208091040260200160405190810160405280929190818152602001828054611dae90612a12565b8015611dfb5780601f10611dd057610100808354040283529160200191611dfb565b820191906000526020600020905b815481529060010190602001808311611dde57829003601f168201915b50505050508152602001600582015481526020016006820160009054906101000a900473ffffffffffffffffffffffffffffffffffffffff1673ffffffffffffffffffffffffffffffffffffffff1673ffffffffffffffffffffffffffffffffffffffff16815250509050806020015196508060400151955080606001519450806080015193508060a0015191506001878787878d97509750975097509750975050919395979092949650565b60075481565b600081519050919050565b600082825260208201905092915050565b6000819050602082019050919050565b600073ffffffffffffffffffffffffffffffffffffffff82169050919050565b6000611f0582611eda565b9050919050565b611f1581611efa565b82525050565b6000611f278383611f0c565b60208301905092915050565b6000602082019050919050565b6000611f4b82611eae565b611f558185611eb9565b9350611f6083611eca565b8060005b83811015611f91578151611f788882611f1b565b9750611f8383611f33565b925050600181019050611f64565b5085935050505092915050565b60006020820190508181036000830152611fb88184611f40565b905092915050565b6000604051905090565b600080fd5b600080fd5b611fdd81611efa565b8114611fe857600080fd5b50565b600081359050611ffa81611fd4565b92915050565b60006020828403121561201657612015611fca565b5b600061202484828501611feb565b91505092915050565b6000819050919050565b6120408161202d565b82525050565b600081519050919050565b600082825260208201905092915050565b60005b83811015612080578082015181840152602081019050612065565b60008484015250505050565b6000601f19601f8301169050919050565b60006120a882612046565b6120b28185612051565b93506120c2818560208601612062565b6120cb8161208c565b840191505092915050565b6120df81611efa565b82525050565b600060a0820190506120fa6000830188612037565b818103602083015261210c818761209d565b90508181036040830152612120818661209d565b905061212f6060830185612037565b61213c60808301846120d6565b9695505050505050565b600080fd5b600080fd5b7f4e487b7100000000000000000000000000000000000000000000000000000000600052604160045260246000fd5b6121888261208c565b810181811067ffffffffffffffff821117156121a7576121a6612150565b5b80604052505050565b60006121ba611fc0565b90506121c6828261217f565b919050565b600067ffffffffffffffff8211156121e6576121e5612150565b5b6121ef8261208c565b9050602081019050919050565b82818337600083830152505050565b600061221e612219846121cb565b6121b0565b90508281526020810184848401111561223a5761223961214b565b5b6122458482856121fc565b509392505050565b600082601f83011261226257612261612146565b5b813561227284826020860161220b565b91505092915050565b60008060006060848603121561229457612293611fca565b5b600084013567ffffffffffffffff8111156122b2576122b1611fcf565b5b6122be8682870161224d565b935050602084013567ffffffffffffffff8111156122df576122de611fcf565b5b6122eb8682870161224d565b92505060406122fc86828701611feb565b9150509250925092565b61230f8161202d565b811461231a57600080fd5b50565b60008135905061232c81612306565b92915050565b60008115159050919050565b61234781612332565b811461235257600080fd5b50565b6000813590506123648161233e565b92915050565b6000806040838503121561238157612380611fca565b5b600061238f8582860161231d565b92505060206123a085828601612355565b9150509250929050565b600060e0820190506123bf600083018a612037565b81810360208301526123d1818961209d565b905081810360408301526123e5818861209d565b905081810360608301526123f9818761209d565b9050818103608083015261240d818661209d565b905061241c60a0830185612037565b61242960c08301846120d6565b98975050505050505050565b600060208201905061244a6000830184612037565b92915050565b600080600080600060a0868803121561246c5761246b611fca565b5b600086013567ffffffffffffffff81111561248a57612489611fcf565b5b6124968882890161224d565b955050602086013567ffffffffffffffff8111156124b7576124b6611fcf565b5b6124c38882890161224d565b945050604086013567ffffffffffffffff8111156124e4576124e3611fcf565b5b6124f08882890161224d565b935050606086013567ffffffffffffffff81111561251157612510611fcf565b5b61251d8882890161224d565b925050608061252e88828901611feb565b9150509295509295909350565b61254481612332565b82525050565b600060c08201905061255f600083018961253b565b61256c6020830188612037565b818103604083015261257e818761209d565b90508181036060830152612592818661209d565b90506125a160808301856120d6565b6125ae60a0830184612037565b979650505050505050565b600081519050919050565b600082825260208201905092915050565b6000819050602082019050919050565b6125ee8161202d565b82525050565b600082825260208201905092915050565b600061261082612046565b61261a81856125f4565b935061262a818560208601612062565b6126338161208c565b840191505092915050565b61264781612332565b82525050565b600060e08301600083015161266560008601826125e5565b506020830151848203602086015261267d8282612605565b915050604083015184820360408601526126978282612605565b915050606083015184820360608601526126b18282612605565b915050608083015184820360808601526126cb8282612605565b91505060a08301516126e060a086018261263e565b5060c08301516126f360c08601826125e5565b508091505092915050565b600061270a838361264d565b905092915050565b6000602082019050919050565b600061272a826125b9565b61273481856125c4565b935083602082028501612746856125d5565b8060005b85811015612782578484038952815161276385826126fe565b945061276e83612712565b925060208a0199505060018101905061274a565b50829750879550505050505092915050565b600060208201905081810360008301526127ae818461271f565b905092915050565b600080600080608085870312156127d0576127cf611fca565b5b600085013567ffffffffffffffff8111156127ee576127ed611fcf565b5b6127fa8782880161224d565b945050602085013567ffffffffffffffff81111561281b5761281a611fcf565b5b6128278782880161224d565b935050604085013567ffffffffffffffff81111561284857612847611fcf565b5b6128548782880161224d565b925050606085013567ffffffffffffffff81111561287557612874611fcf565b5b6128818782880161224d565b91505092959194509250565b600080604083850312156128a4576128a3611fca565b5b60006128b285828601611feb565b92505060206128c38582860161231d565b9150509250929050565b600060e0820190506128e2600083018a612037565b81810360208301526128f4818961209d565b90508181036040830152612908818861209d565b9050818103606083015261291c818761209d565b90508181036080830152612930818661209d565b905061293f60a083018561253b565b61294c60c0830184612037565b98975050505050505050565b600060e08201905061296d600083018a61253b565b818103602083015261297f818961209d565b90508181036040830152612993818861209d565b905081810360608301526129a7818761209d565b905081810360808301526129bb818661209d565b90506129ca60a08301856120d6565b6129d760c0830184612037565b98975050505050505050565b7f4e487b7100000000000000000000000000000000000000000000000000000000600052602260045260246000fd5b60006002820490506001821680612a2a57607f821691505b602082108103612a3d57612a3c6129e3565b5b50919050565b7f4f6e6c79206f776e657220686173206163636573730000000000000000000000600082015250565b6000612a79601583612051565b9150612a8482612a43565b602082019050919050565b60006020820190508181036000830152612aa881612a6c565b9050919050565b7f50726f766964657220616c726561647920657869737400000000000000000000600082015250565b6000612ae5601683612051565b9150612af082612aaf565b602082019050919050565b60006020820190508181036000830152612b1481612ad8565b9050919050565b7f4e487b7100000000000000000000000000000000000000000000000000000000600052601160045260246000fd5b6000612b558261202d565b91507fffffffffffffffffffffffffffffffffffffffffffffffffffffffffffffffff8203612b8757612b86612b1b565b5b600182019050919050565b60008190508160005260206000209050919050565b60006020601f8301049050919050565b600082821b905092915050565b600060088302612bf47fffffffffffffffffffffffffffffffffffffffffffffffffffffffffffffffff82612bb7565b612bfe8683612bb7565b95508019841693508086168417925050509392505050565b6000819050919050565b6000612c3b612c36612c318461202d565b612c16565b61202d565b9050919050565b6000819050919050565b612c5583612c20565b612c69612c6182612c42565b848454612bc4565b825550505050565b600090565b612c7e612c71565b612c89818484612c4c565b505050565b5b81811015612cad57612ca2600082612c76565b600181019050612c8f565b5050565b601f821115612cf257612cc381612b92565b612ccc84612ba7565b81016020851015612cdb578190505b612cef612ce785612ba7565b830182612c8e565b50505b505050565b600082821c905092915050565b6000612d1560001984600802612cf7565b1980831691505092915050565b6000612d2e8383612d04565b9150826002028217905092915050565b612d4782612046565b67ffffffffffffffff811115612d6057612d5f612150565b5b612d6a8254612a12565b612d75828285612cb1565b600060209050601f831160018114612da85760008415612d96578287015190505b612da08582612d22565b865550612e08565b601f198416612db686612b92565b60005b82811015612dde57848901518255600182019150602085019450602081019050612db9565b86831015612dfb5784890151612df7601f891682612d04565b8355505b6001600288020188555050505b505050505050565b6000606082019050612e256000830186612037565b8181036020830152612e37818561209d565b9050612e4660408301846120d6565b949350505050565b7f4e6f206a6f6220666f756e640000000000000000000000000000000000000000600082015250565b6000612e84600c83612051565b9150612e8f82612e4e565b602082019050919050565b60006020820190508181036000830152612eb381612e77565b9050919050565b7f4a6f62206964206f75746f66626f756e64000000000000000000000000000000600082015250565b6000612ef0601183612051565b9150612efb82612eba565b602082019050919050565b60006020820190508181036000830152612f1f81612ee3565b9050919050565b6000612f318261202d565b9150612f3c8361202d565b9250828203905081811115612f5457612f53612b1b565b5b92915050565b7f4e487b7100000000000000000000000000000000000000000000000000000000600052603260045260246000fd5b7f4a6f6220776974682074686973206964206e6f74206578697374000000000000600082015250565b6000612fbf601a83612051565b9150612fca82612f89565b602082019050919050565b60006020820190508181036000830152612fee81612fb2565b9050919050565b7f50726f7669646572206e6f7420666f756e640000000000000000000000000000600082015250565b600061302b601283612051565b915061303682612ff5565b602082019050919050565b6000602082019050818103600083015261305a8161301e565b9050919050565b7f6f6e6c792070726f76696465722063616e20616464206a6f6200000000000000600082015250565b6000613097601983612051565b91506130a282613061565b602082019050919050565b600060208201905081810360008301526130c68161308a565b9050919050565b60006130d88261202d565b91506130e38361202d565b92508282019050808211156130fb576130fa612b1b565b5b92915050565b600060c0820190506131166000830189612037565b8181036020830152613128818861209d565b9050818103604083015261313c818761209d565b90508181036060830152613150818661209d565b90508181036080830152613164818561209d565b905061317360a0830184612037565b979650505050505050565b7f576f726b6572206e6f7420666f756e6400000000000000000000000000000000600082015250565b60006131b4601083612051565b91506131bf8261317e565b602082019050919050565b600060208201905081810360008301526131e3816131a7565b905091905056fea264697066735822122080801ae7f1aa4c52242d3f608e2367846d5030e354901358889a37bd5da5106a64736f6c63430008130033",
  "linkReferences": {},
  "deployedLinkReferences": {}
}