{
  "_format": "hh-sol-artifact-1",
  "contractName": "JobPortal",
  "sourceName": "contracts/Skilled.sol",
  "abi": [
    {
      "inputs": [],
      "stateMutability": "nonpayable",
      "type": "constructor"
    },
    {
      "anonymous": false,
      "inputs": [
        {
          "indexed": true,
          "internalType": "address",
          "name": "provider",
          "type": "address"
        },
        {
          "indexed": false,
          "internalType": "uint256",
          "name": "jobId",
          "type": "uint256"
        },
        {
          "indexed": false,
          "internalType": "string",
          "name": "title",
          "type": "string"
        },
        {
          "indexed": false,
          "internalType": "string",
          "name": "location",
          "type": "string"
        },
        {
          "indexed": false,
          "internalType": "string",
          "name": "salary",
          "type": "string"
        },
        {
          "indexed": false,
          "internalType": "string",
          "name": "description",
          "type": "string"
        },
        {
          "indexed": false,
          "internalType": "uint256",
          "name": "timestamp",
          "type": "uint256"
        }
      ],
      "name": "JobAdded",
      "type": "event"
    },
    {
      "anonymous": false,
      "inputs": [
        {
          "indexed": true,
          "internalType": "address",
          "name": "applicant",
          "type": "address"
        },
        {
          "indexed": true,
          "internalType": "address",
          "name": "provider",
          "type": "address"
        },
        {
          "indexed": false,
          "internalType": "uint256",
          "name": "jobId",
          "type": "uint256"
        },
        {
          "indexed": false,
          "internalType": "uint256",
          "name": "timestamp",
          "type": "uint256"
        }
      ],
      "name": "JobApplicationSubmitted",
      "type": "event"
    },
    {
      "anonymous": false,
      "inputs": [
        {
          "indexed": false,
          "internalType": "uint256",
          "name": "providerId",
          "type": "uint256"
        },
        {
          "indexed": false,
          "internalType": "string",
          "name": "name",
          "type": "string"
        },
        {
          "indexed": false,
          "internalType": "address",
          "name": "owner",
          "type": "address"
        }
      ],
      "name": "ProviderRegistered",
      "type": "event"
    },
    {
      "anonymous": false,
      "inputs": [
        {
          "indexed": false,
          "internalType": "uint256",
          "name": "workerId",
          "type": "uint256"
        },
        {
          "indexed": false,
          "internalType": "string",
          "name": "name",
          "type": "string"
        },
        {
          "indexed": false,
          "internalType": "address",
          "name": "owner",
          "type": "address"
        }
      ],
      "name": "WorkerRegistered",
      "type": "event"
    },
    {
      "inputs": [
        {
          "internalType": "uint256",
          "name": "_jobId",
          "type": "uint256"
        },
        {
          "internalType": "address",
          "name": "_applicant",
          "type": "address"
        }
      ],
      "name": "acceptApplication",
      "outputs": [],
      "stateMutability": "nonpayable",
      "type": "function"
    },
    {
      "inputs": [
        {
          "internalType": "string",
          "name": "_title",
          "type": "string"
        },
        {
          "internalType": "string",
          "name": "_location",
          "type": "string"
        },
        {
          "internalType": "string",
          "name": "_salary",
          "type": "string"
        },
        {
          "internalType": "string",
          "name": "_description",
          "type": "string"
        }
      ],
      "name": "addJob",
      "outputs": [],
      "stateMutability": "nonpayable",
      "type": "function"
    },
    {
      "inputs": [
        {
          "internalType": "address",
          "name": "",
          "type": "address"
        },
        {
          "internalType": "uint256",
          "name": "",
          "type": "uint256"
        },
        {
          "internalType": "address",
          "name": "",
          "type": "address"
        }
      ],
      "name": "applications",
      "outputs": [
        {
          "internalType": "address",
          "name": "applicant",
          "type": "address"
        },
        {
          "internalType": "uint256",
          "name": "jobId",
          "type": "uint256"
        },
        {
          "internalType": "address",
          "name": "provider",
          "type": "address"
        },
        {
          "internalType": "uint256",
          "name": "timestamp",
          "type": "uint256"
        },
        {
          "internalType": "bool",
          "name": "isAccepted",
          "type": "bool"
        }
      ],
      "stateMutability": "view",
      "type": "function"
    },
    {
      "inputs": [
        {
          "internalType": "address",
          "name": "_providerAddress",
          "type": "address"
        },
        {
          "internalType": "uint256",
          "name": "_jobId",
          "type": "uint256"
        }
      ],
      "name": "applyForJob",
      "outputs": [],
      "stateMutability": "nonpayable",
      "type": "function"
    },
    {
      "inputs": [],
      "name": "getAllProvider",
      "outputs": [
        {
          "internalType": "address[]",
          "name": "",
          "type": "address[]"
        }
      ],
      "stateMutability": "view",
      "type": "function"
    },
    {
      "inputs": [],
      "name": "getAllWorker",
      "outputs": [
        {
          "internalType": "address[]",
          "name": "",
          "type": "address[]"
        }
      ],
      "stateMutability": "view",
      "type": "function"
    },
    {
      "inputs": [
        {
          "internalType": "uint256",
          "name": "_jobId",
          "type": "uint256"
        }
      ],
      "name": "getJobApplications",
      "outputs": [
        {
          "components": [
            {
              "internalType": "address",
              "name": "applicant",
              "type": "address"
            },
            {
              "internalType": "uint256",
              "name": "jobId",
              "type": "uint256"
            },
            {
              "internalType": "address",
              "name": "provider",
              "type": "address"
            },
            {
              "internalType": "uint256",
              "name": "timestamp",
              "type": "uint256"
            },
            {
              "internalType": "bool",
              "name": "isAccepted",
              "type": "bool"
            }
          ],
          "internalType": "struct JobPortal.Application[]",
          "name": "",
          "type": "tuple[]"
        }
      ],
      "stateMutability": "view",
      "type": "function"
    },
    {
      "inputs": [],
      "name": "getJobs",
      "outputs": [
        {
          "components": [
            {
              "internalType": "uint256",
              "name": "id",
              "type": "uint256"
            },
            {
              "internalType": "string",
              "name": "title",
              "type": "string"
            },
            {
              "internalType": "string",
              "name": "location",
              "type": "string"
            },
            {
              "internalType": "string",
              "name": "salary",
              "type": "string"
            },
            {
              "internalType": "string",
              "name": "description",
              "type": "string"
            },
            {
              "internalType": "bool",
              "name": "isActive",
              "type": "bool"
            },
            {
              "internalType": "uint256",
              "name": "timestamp",
              "type": "uint256"
            }
          ],
          "internalType": "struct JobPortal.Job[]",
          "name": "",
          "type": "tuple[]"
        }
      ],
      "stateMutability": "view",
      "type": "function"
    },
    {
      "inputs": [],
      "name": "getMyApplications",
      "outputs": [
        {
          "components": [
            {
              "internalType": "address",
              "name": "applicant",
              "type": "address"
            },
            {
              "internalType": "uint256",
              "name": "jobId",
              "type": "uint256"
            },
            {
              "internalType": "address",
              "name": "provider",
              "type": "address"
            },
            {
              "internalType": "uint256",
              "name": "timestamp",
              "type": "uint256"
            },
            {
              "internalType": "bool",
              "name": "isAccepted",
              "type": "bool"
            }
          ],
          "internalType": "struct JobPortal.Application[]",
          "name": "",
          "type": "tuple[]"
        }
      ],
      "stateMutability": "view",
      "type": "function"
    },
    {
      "inputs": [
        {
          "internalType": "address",
          "name": "_walletAddress",
          "type": "address"
        }
      ],
      "name": "getProvider",
      "outputs": [
        {
          "internalType": "bool",
          "name": "found",
          "type": "bool"
        },
        {
          "internalType": "uint256",
          "name": "_id",
          "type": "uint256"
        },
        {
          "internalType": "string",
          "name": "_name",
          "type": "string"
        },
        {
          "internalType": "string",
          "name": "_email",
          "type": "string"
        },
        {
          "internalType": "address",
          "name": "__walletAddress",
          "type": "address"
        },
        {
          "internalType": "uint256",
          "name": "_timestamp",
          "type": "uint256"
        }
      ],
      "stateMutability": "view",
      "type": "function"
    },
    {
      "inputs": [
        {
          "internalType": "address",
          "name": "_walletAddress",
          "type": "address"
        }
      ],
      "name": "getWorker",
      "outputs": [
        {
          "internalType": "bool",
          "name": "found",
          "type": "bool"
        },
        {
          "internalType": "string",
          "name": "_name",
          "type": "string"
        },
        {
          "internalType": "string",
          "name": "_email",
          "type": "string"
        },
        {
          "internalType": "string",
          "name": "_experience",
          "type": "string"
        },
        {
          "internalType": "string",
          "name": "_skills",
          "type": "string"
        },
        {
          "internalType": "address",
          "name": "__walletAddress",
          "type": "address"
        },
        {
          "internalType": "uint256",
          "name": "_timestamp",
          "type": "uint256"
        }
      ],
      "stateMutability": "view",
      "type": "function"
    },
    {
      "inputs": [
        {
          "internalType": "uint256",
          "name": "_id",
          "type": "uint256"
        },
        {
          "internalType": "bool",
          "name": "_isActive",
          "type": "bool"
        }
      ],
      "name": "jobStateChange",
      "outputs": [],
      "stateMutability": "nonpayable",
      "type": "function"
    },
    {
      "inputs": [
        {
          "internalType": "address",
          "name": "",
          "type": "address"
        },
        {
          "internalType": "uint256",
          "name": "",
          "type": "uint256"
        }
      ],
      "name": "jobs",
      "outputs": [
        {
          "internalType": "uint256",
          "name": "id",
          "type": "uint256"
        },
        {
          "internalType": "string",
          "name": "title",
          "type": "string"
        },
        {
          "internalType": "string",
          "name": "location",
          "type": "string"
        },
        {
          "internalType": "string",
          "name": "salary",
          "type": "string"
        },
        {
          "internalType": "string",
          "name": "description",
          "type": "string"
        },
        {
          "internalType": "bool",
          "name": "isActive",
          "type": "bool"
        },
        {
          "internalType": "uint256",
          "name": "timestamp",
          "type": "uint256"
        }
      ],
      "stateMutability": "view",
      "type": "function"
    },
    {
      "inputs": [],
      "name": "nextProviderId",
      "outputs": [
        {
          "internalType": "uint256",
          "name": "",
          "type": "uint256"
        }
      ],
      "stateMutability": "view",
      "type": "function"
    },
    {
      "inputs": [],
      "name": "nextWorkerId",
      "outputs": [
        {
          "internalType": "uint256",
          "name": "",
          "type": "uint256"
        }
      ],
      "stateMutability": "view",
      "type": "function"
    },
    {
      "inputs": [
        {
          "internalType": "address",
          "name": "",
          "type": "address"
        }
      ],
      "name": "providers",
      "outputs": [
        {
          "internalType": "uint256",
          "name": "id",
          "type": "uint256"
        },
        {
          "internalType": "string",
          "name": "name",
          "type": "string"
        },
        {
          "internalType": "string",
          "name": "email",
          "type": "string"
        },
        {
          "internalType": "uint256",
          "name": "timestamp",
          "type": "uint256"
        },
        {
          "internalType": "address",
          "name": "walletAddress",
          "type": "address"
        }
      ],
      "stateMutability": "view",
      "type": "function"
    },
    {
      "inputs": [
        {
          "internalType": "string",
          "name": "_name",
          "type": "string"
        },
        {
          "internalType": "string",
          "name": "_email",
          "type": "string"
        },
        {
          "internalType": "address",
          "name": "_walletAddress",
          "type": "address"
        }
      ],
      "name": "registerProvider",
      "outputs": [],
      "stateMutability": "nonpayable",
      "type": "function"
    },
    {
      "inputs": [
        {
          "internalType": "string",
          "name": "_name",
          "type": "string"
        },
        {
          "internalType": "string",
          "name": "_email",
          "type": "string"
        },
        {
          "internalType": "string",
          "name": "_experience",
          "type": "string"
        },
        {
          "internalType": "string",
          "name": "_skills",
          "type": "string"
        },
        {
          "internalType": "address",
          "name": "_walletAddress",
          "type": "address"
        }
      ],
      "name": "registerWorker",
      "outputs": [],
      "stateMutability": "nonpayable",
      "type": "function"
    },
    {
      "inputs": [
        {
          "internalType": "address",
          "name": "",
          "type": "address"
        }
      ],
      "name": "workers",
      "outputs": [
        {
          "internalType": "uint256",
          "name": "id",
          "type": "uint256"
        },
        {
          "internalType": "string",
          "name": "name",
          "type": "string"
        },
        {
          "internalType": "string",
          "name": "email",
          "type": "string"
        },
        {
          "internalType": "string",
          "name": "experience",
          "type": "string"
        },
        {
          "internalType": "string",
          "name": "skills",
          "type": "string"
        },
        {
          "internalType": "uint256",
          "name": "timestamp",
          "type": "uint256"
        },
        {
          "internalType": "address",
          "name": "walletAddress",
          "type": "address"
        }
      ],
      "stateMutability": "view",
      "type": "function"
    }
  ],
  "bytecode": "0x608060405234801561001057600080fd5b50336000806101000a81548173ffffffffffffffffffffffffffffffffffffffff021916908373ffffffffffffffffffffffffffffffffffffffff160217905550614ccd806100606000396000f3fe608060405234801561001057600080fd5b50600436106101215760003560e01c8063627b594b116100ad578063747143b911610071578063747143b914610333578063853aff911461036357806393c3841a14610381578063c011b1c31461039d578063c84a4922146103d357610121565b8063627b594b1461028957806368581ebd146102a55780636bfd0415146102c35780636f0d7116146102e15780636f82f8fd146102fd57610121565b80631a7e1acc116100f45780631a7e1acc146101c85780634048a257146101e457806351a8dbcf1461021a5780635351e0151461023857806355f21eb71461025457610121565b806304e70ca6146101265780630787bc271461014457806315b35ab01461017857806316f665d1146101ac575b600080fd5b61012e6103f1565b60405161013b91906133b8565b60405180910390f35b61015e6004803603810190610159919061341a565b61047f565b60405161016f9594939291906134ff565b60405180910390f35b610192600480360381019061018d919061358c565b6105e5565b6040516101a39594939291906135fa565b60405180910390f35b6101c660048036038101906101c19190613782565b610682565b005b6101e260048036038101906101dd9190613839565b61095a565b005b6101fe60048036038101906101f9919061341a565b610b9f565b6040516102119796959493929190613879565b60405180910390f35b610222610e21565b60405161022f9190613904565b60405180910390f35b610252600480360381019061024d919061391f565b610e27565b005b61026e6004803603810190610269919061341a565b6110b4565b60405161028096959493929190613a0a565b60405180910390f35b6102a3600480360381019061029e9190613a79565b61134f565b005b6102ad611554565b6040516102ba9190613c94565b60405180910390f35b6102cb6118ec565b6040516102d891906133b8565b60405180910390f35b6102fb60048036038101906102f69190613cb6565b61197a565b005b61031760048036038101906103129190613d8d565b611bdd565b60405161032a9796959493929190613dcd565b60405180910390f35b61034d60048036038101906103489190613e58565b611e69565b60405161035a9190613f9c565b60405180910390f35b61036b6123bb565b6040516103789190613f9c565b60405180910390f35b61039b60048036038101906103969190613d8d565b6129e8565b005b6103b760048036038101906103b2919061341a565b612e93565b6040516103ca9796959493929190613fbe565b60405180910390f35b6103db613265565b6040516103e89190613904565b60405180910390f35b6060600280548060200260200160405190810160405280929190818152602001828054801561047557602002820191906000526020600020905b8160009054906101000a900473ffffffffffffffffffffffffffffffffffffffff1673ffffffffffffffffffffffffffffffffffffffff168152602001906001019080831161042b575b5050505050905090565b60046020528060005260406000206000915090508060000154908060010180546104a890614078565b80601f01602080910402602001604051908101604052809291908181526020018280546104d490614078565b80156105215780601f106104f657610100808354040283529160200191610521565b820191906000526020600020905b81548152906001019060200180831161050457829003601f168201915b50505050509080600201805461053690614078565b80601f016020809104026020016040519081016040528092919081815260200182805461056290614078565b80156105af5780601f10610584576101008083540402835291602001916105af565b820191906000526020600020905b81548152906001019060200180831161059257829003601f168201915b5050505050908060030154908060040160009054906101000a900473ffffffffffffffffffffffffffffffffffffffff16905085565b600360205282600052604060002060205281600052604060002060205280600052604060002060009250925050508060000160009054906101000a900473ffffffffffffffffffffffffffffffffffffffff16908060010154908060020160009054906101000a900473ffffffffffffffffffffffffffffffffffffffff16908060030154908060040160009054906101000a900460ff16905085565b60008054906101000a900473ffffffffffffffffffffffffffffffffffffffff1673ffffffffffffffffffffffffffffffffffffffff163373ffffffffffffffffffffffffffffffffffffffff1614610710576040517f08c379a0000000000000000000000000000000000000000000000000000000008152600401610707906140f5565b60405180910390fd5b6000600460008373ffffffffffffffffffffffffffffffffffffffff1673ffffffffffffffffffffffffffffffffffffffff1681526020019081526020016000206000015414610795576040517f08c379a000000000000000000000000000000000000000000000000000000000815260040161078c90614161565b60405180910390fd5b600760008154809291906107a8906141b0565b91905055506040518060a0016040528060075481526020018481526020018381526020014281526020018273ffffffffffffffffffffffffffffffffffffffff16815250600460008373ffffffffffffffffffffffffffffffffffffffff1673ffffffffffffffffffffffffffffffffffffffff16815260200190815260200160002060008201518160000155602082015181600101908161084a91906143a4565b50604082015181600201908161086091906143a4565b506060820151816003015560808201518160040160006101000a81548173ffffffffffffffffffffffffffffffffffffffff021916908373ffffffffffffffffffffffffffffffffffffffff1602179055509050506001819080600181540180825580915050600190039060005260206000200160009091909190916101000a81548173ffffffffffffffffffffffffffffffffffffffff021916908373ffffffffffffffffffffffffffffffffffffffff1602179055507fc18d7c6898e7069714655160c92f5b464967bd122287b01ed2c0331d086e0c18600754848360405161094d93929190614476565b60405180910390a1505050565b6000600660003373ffffffffffffffffffffffffffffffffffffffff1673ffffffffffffffffffffffffffffffffffffffff16815260200190815260200160002080549050116109df576040517f08c379a00000000000000000000000000000000000000000000000000000000081526004016109d690614500565b60405180910390fd5b600660003373ffffffffffffffffffffffffffffffffffffffff1673ffffffffffffffffffffffffffffffffffffffff16815260200190815260200160002080549050821115610a64576040517f08c379a0000000000000000000000000000000000000000000000000000000008152600401610a5b9061456c565b60405180910390fd5b6000600660003373ffffffffffffffffffffffffffffffffffffffff1673ffffffffffffffffffffffffffffffffffffffff168152602001908152602001600020600184610ab2919061458c565b81548110610ac357610ac26145c0565b5b90600052602060002090600702016000015403610b15576040517f08c379a0000000000000000000000000000000000000000000000000000000008152600401610b0c9061463b565b60405180910390fd5b80600660003373ffffffffffffffffffffffffffffffffffffffff1673ffffffffffffffffffffffffffffffffffffffff168152602001908152602001600020600184610b62919061458c565b81548110610b7357610b726145c0565b5b906000526020600020906007020160050160006101000a81548160ff0219169083151502179055505050565b6005602052806000526040600020600091509050806000015490806001018054610bc890614078565b80601f0160208091040260200160405190810160405280929190818152602001828054610bf490614078565b8015610c415780601f10610c1657610100808354040283529160200191610c41565b820191906000526020600020905b815481529060010190602001808311610c2457829003601f168201915b505050505090806002018054610c5690614078565b80601f0160208091040260200160405190810160405280929190818152602001828054610c8290614078565b8015610ccf5780601f10610ca457610100808354040283529160200191610ccf565b820191906000526020600020905b815481529060010190602001808311610cb257829003601f168201915b505050505090806003018054610ce490614078565b80601f0160208091040260200160405190810160405280929190818152602001828054610d1090614078565b8015610d5d5780601f10610d3257610100808354040283529160200191610d5d565b820191906000526020600020905b815481529060010190602001808311610d4057829003601f168201915b505050505090806004018054610d7290614078565b80601f0160208091040260200160405190810160405280929190818152602001828054610d9e90614078565b8015610deb5780601f10610dc057610100808354040283529160200191610deb565b820191906000526020600020905b815481529060010190602001808311610dce57829003601f168201915b5050505050908060050154908060060160009054906101000a900473ffffffffffffffffffffffffffffffffffffffff16905087565b60075481565b60008054906101000a900473ffffffffffffffffffffffffffffffffffffffff1673ffffffffffffffffffffffffffffffffffffffff163373ffffffffffffffffffffffffffffffffffffffff1614610eb5576040517f08c379a0000000000000000000000000000000000000000000000000000000008152600401610eac906140f5565b60405180910390fd5b60086000815480929190610ec8906141b0565b91905055506040518060e0016040528060085481526020018681526020018581526020018481526020018381526020014281526020018273ffffffffffffffffffffffffffffffffffffffff16815250600560008373ffffffffffffffffffffffffffffffffffffffff1673ffffffffffffffffffffffffffffffffffffffff168152602001908152602001600020600082015181600001556020820151816001019081610f7691906143a4565b506040820151816002019081610f8c91906143a4565b506060820151816003019081610fa291906143a4565b506080820151816004019081610fb891906143a4565b5060a0820151816005015560c08201518160060160006101000a81548173ffffffffffffffffffffffffffffffffffffffff021916908373ffffffffffffffffffffffffffffffffffffffff1602179055509050506002819080600181540180825580915050600190039060005260206000200160009091909190916101000a81548173ffffffffffffffffffffffffffffffffffffffff021916908373ffffffffffffffffffffffffffffffffffffffff1602179055507fe1968ed708177421106ab22cb993650a9e3bd793ebe1a805a1a49423cf050e3960075486836040516110a593929190614476565b60405180910390a15050505050565b6000806060806000806000600460008973ffffffffffffffffffffffffffffffffffffffff1673ffffffffffffffffffffffffffffffffffffffff1681526020019081526020016000206000015403611142576040517f08c379a0000000000000000000000000000000000000000000000000000000008152600401611139906146a7565b60405180910390fd5b6000600460008973ffffffffffffffffffffffffffffffffffffffff1673ffffffffffffffffffffffffffffffffffffffff1681526020019081526020016000206040518060a0016040529081600082015481526020016001820180546111a890614078565b80601f01602080910402602001604051908101604052809291908181526020018280546111d490614078565b80156112215780601f106111f657610100808354040283529160200191611221565b820191906000526020600020905b81548152906001019060200180831161120457829003601f168201915b5050505050815260200160028201805461123a90614078565b80601f016020809104026020016040519081016040528092919081815260200182805461126690614078565b80156112b35780601f10611288576101008083540402835291602001916112b3565b820191906000526020600020905b81548152906001019060200180831161129657829003601f168201915b50505050508152602001600382015481526020016004820160009054906101000a900473ffffffffffffffffffffffffffffffffffffffff1673ffffffffffffffffffffffffffffffffffffffff1673ffffffffffffffffffffffffffffffffffffffff168152505090508060000151955080602001519450806040015193508060800151925080606001519150600196505091939550919395565b6000600460003373ffffffffffffffffffffffffffffffffffffffff1673ffffffffffffffffffffffffffffffffffffffff16815260200190815260200160002060000154036113d4576040517f08c379a00000000000000000000000000000000000000000000000000000000081526004016113cb90614739565b60405180910390fd5b6000600360003373ffffffffffffffffffffffffffffffffffffffff1673ffffffffffffffffffffffffffffffffffffffff168152602001908152602001600020600084815260200190815260200160002060008373ffffffffffffffffffffffffffffffffffffffff1673ffffffffffffffffffffffffffffffffffffffff16815260200190815260200160002060030154036114a7576040517f08c379a000000000000000000000000000000000000000000000000000000000815260040161149e906147a5565b60405180910390fd5b6001600360003373ffffffffffffffffffffffffffffffffffffffff1673ffffffffffffffffffffffffffffffffffffffff168152602001908152602001600020600084815260200190815260200160002060008373ffffffffffffffffffffffffffffffffffffffff1673ffffffffffffffffffffffffffffffffffffffff16815260200190815260200160002060040160006101000a81548160ff0219169083151502179055505050565b60606000600660003373ffffffffffffffffffffffffffffffffffffffff1673ffffffffffffffffffffffffffffffffffffffff16815260200190815260200160002080549050116115db576040517f08c379a00000000000000000000000000000000000000000000000000000000081526004016115d290614500565b60405180910390fd5b600660003373ffffffffffffffffffffffffffffffffffffffff1673ffffffffffffffffffffffffffffffffffffffff168152602001908152602001600020805480602002602001604051908101604052809291908181526020016000905b828210156118e357838290600052602060002090600702016040518060e00160405290816000820154815260200160018201805461167790614078565b80601f01602080910402602001604051908101604052809291908181526020018280546116a390614078565b80156116f05780601f106116c5576101008083540402835291602001916116f0565b820191906000526020600020905b8154815290600101906020018083116116d357829003601f168201915b5050505050815260200160028201805461170990614078565b80601f016020809104026020016040519081016040528092919081815260200182805461173590614078565b80156117825780601f1061175757610100808354040283529160200191611782565b820191906000526020600020905b81548152906001019060200180831161176557829003601f168201915b5050505050815260200160038201805461179b90614078565b80601f01602080910402602001604051908101604052809291908181526020018280546117c790614078565b80156118145780601f106117e957610100808354040283529160200191611814565b820191906000526020600020905b8154815290600101906020018083116117f757829003601f168201915b5050505050815260200160048201805461182d90614078565b80601f016020809104026020016040519081016040528092919081815260200182805461185990614078565b80156118a65780601f1061187b576101008083540402835291602001916118a6565b820191906000526020600020905b81548152906001019060200180831161188957829003601f168201915b505050505081526020016005820160009054906101000a900460ff161515151581526020016006820154815250508152602001906001019061163a565b50505050905090565b6060600180548060200260200160405190810160405280929190818152602001828054801561197057602002820191906000526020600020905b8160009054906101000a900473ffffffffffffffffffffffffffffffffffffffff1673ffffffffffffffffffffffffffffffffffffffff1681526020019060010190808311611926575b5050505050905090565b6000600460003373ffffffffffffffffffffffffffffffffffffffff1673ffffffffffffffffffffffffffffffffffffffff16815260200190815260200160002060000154036119ff576040517f08c379a00000000000000000000000000000000000000000000000000000000081526004016119f690614811565b60405180910390fd5b60006001600660003373ffffffffffffffffffffffffffffffffffffffff1673ffffffffffffffffffffffffffffffffffffffff16815260200190815260200160002080549050611a509190614831565b9050600660003373ffffffffffffffffffffffffffffffffffffffff1673ffffffffffffffffffffffffffffffffffffffff1681526020019081526020016000206040518060e00160405280838152602001878152602001868152602001858152602001848152602001600115158152602001428152509080600181540180825580915050600190039060005260206000209060070201600090919091909150600082015181600001556020820151816001019081611b0f91906143a4565b506040820151816002019081611b2591906143a4565b506060820151816003019081611b3b91906143a4565b506080820151816004019081611b5191906143a4565b5060a08201518160050160006101000a81548160ff02191690831515021790555060c0820151816006015550503373ffffffffffffffffffffffffffffffffffffffff167f2435eef6efb5586c6bba43e61ec589f6fffeb354239bf6fb210cef0b75f51748828787878742604051611bce96959493929190614865565b60405180910390a25050505050565b60066020528160005260406000208181548110611bf957600080fd5b906000526020600020906007020160009150915050806000015490806001018054611c2390614078565b80601f0160208091040260200160405190810160405280929190818152602001828054611c4f90614078565b8015611c9c5780601f10611c7157610100808354040283529160200191611c9c565b820191906000526020600020905b815481529060010190602001808311611c7f57829003601f168201915b505050505090806002018054611cb190614078565b80601f0160208091040260200160405190810160405280929190818152602001828054611cdd90614078565b8015611d2a5780601f10611cff57610100808354040283529160200191611d2a565b820191906000526020600020905b815481529060010190602001808311611d0d57829003601f168201915b505050505090806003018054611d3f90614078565b80601f0160208091040260200160405190810160405280929190818152602001828054611d6b90614078565b8015611db85780601f10611d8d57610100808354040283529160200191611db8565b820191906000526020600020905b815481529060010190602001808311611d9b57829003601f168201915b505050505090806004018054611dcd90614078565b80601f0160208091040260200160405190810160405280929190818152602001828054611df990614078565b8015611e465780601f10611e1b57610100808354040283529160200191611e46565b820191906000526020600020905b815481529060010190602001808311611e2957829003601f168201915b5050505050908060050160009054906101000a900460ff16908060060154905087565b60606000600460003373ffffffffffffffffffffffffffffffffffffffff1673ffffffffffffffffffffffffffffffffffffffff1681526020019081526020016000206000015403611ef0576040517f08c379a0000000000000000000000000000000000000000000000000000000008152600401611ee790614954565b60405180910390fd5b81600660003373ffffffffffffffffffffffffffffffffffffffff1673ffffffffffffffffffffffffffffffffffffffff168152602001908152602001600020805490501015611f75576040517f08c379a0000000000000000000000000000000000000000000000000000000008152600401611f6c906149c0565b60405180910390fd5b6000805b60028054905081101561207e576000600360003373ffffffffffffffffffffffffffffffffffffffff1673ffffffffffffffffffffffffffffffffffffffff1681526020019081526020016000206000868152602001908152602001600020600060028481548110611fee57611fed6145c0565b5b9060005260206000200160009054906101000a900473ffffffffffffffffffffffffffffffffffffffff1673ffffffffffffffffffffffffffffffffffffffff1673ffffffffffffffffffffffffffffffffffffffff168152602001908152602001600020600301541461206b578180612067906141b0565b9250505b8080612076906141b0565b915050611f79565b5060008167ffffffffffffffff81111561209b5761209a613657565b5b6040519080825280602002602001820160405280156120d457816020015b6120c161326b565b8152602001906001900390816120b95790505b5090506000805b6002805490508110156123af576000600360003373ffffffffffffffffffffffffffffffffffffffff1673ffffffffffffffffffffffffffffffffffffffff16815260200190815260200160002060008881526020019081526020016000206000600284815481106121505761214f6145c0565b5b9060005260206000200160009054906101000a900473ffffffffffffffffffffffffffffffffffffffff1673ffffffffffffffffffffffffffffffffffffffff1673ffffffffffffffffffffffffffffffffffffffff168152602001908152602001600020600301541461239c57600360003373ffffffffffffffffffffffffffffffffffffffff1673ffffffffffffffffffffffffffffffffffffffff1681526020019081526020016000206000878152602001908152602001600020600060028381548110612224576122236145c0565b5b9060005260206000200160009054906101000a900473ffffffffffffffffffffffffffffffffffffffff1673ffffffffffffffffffffffffffffffffffffffff1673ffffffffffffffffffffffffffffffffffffffff1681526020019081526020016000206040518060a00160405290816000820160009054906101000a900473ffffffffffffffffffffffffffffffffffffffff1673ffffffffffffffffffffffffffffffffffffffff1673ffffffffffffffffffffffffffffffffffffffff168152602001600182015481526020016002820160009054906101000a900473ffffffffffffffffffffffffffffffffffffffff1673ffffffffffffffffffffffffffffffffffffffff1673ffffffffffffffffffffffffffffffffffffffff168152602001600382015481526020016004820160009054906101000a900460ff161515151581525050838381518110612382576123816145c0565b5b60200260200101819052508180612398906141b0565b9250505b80806123a7906141b0565b9150506120db565b50819350505050919050565b60606000600560003373ffffffffffffffffffffffffffffffffffffffff1673ffffffffffffffffffffffffffffffffffffffff1681526020019081526020016000206000015403612442576040517f08c379a000000000000000000000000000000000000000000000000000000000815260040161243990614a52565b60405180910390fd5b6000805b6001805490508110156125f65760005b600660006001848154811061246e5761246d6145c0565b5b9060005260206000200160009054906101000a900473ffffffffffffffffffffffffffffffffffffffff1673ffffffffffffffffffffffffffffffffffffffff1673ffffffffffffffffffffffffffffffffffffffff168152602001908152602001600020805490508110156125e257600060036000600185815481106124f8576124f76145c0565b5b9060005260206000200160009054906101000a900473ffffffffffffffffffffffffffffffffffffffff1673ffffffffffffffffffffffffffffffffffffffff1673ffffffffffffffffffffffffffffffffffffffff168152602001908152602001600020600060018461256c9190614831565b815260200190815260200160002060003373ffffffffffffffffffffffffffffffffffffffff1673ffffffffffffffffffffffffffffffffffffffff16815260200190815260200160002060030154146125cf5782806125cb906141b0565b9350505b80806125da906141b0565b915050612456565b5080806125ee906141b0565b915050612446565b5060008167ffffffffffffffff81111561261357612612613657565b5b60405190808252806020026020018201604052801561264c57816020015b61263961326b565b8152602001906001900390816126315790505b5090506000805b6001805490508110156129de5760005b600660006001848154811061267b5761267a6145c0565b5b9060005260206000200160009054906101000a900473ffffffffffffffffffffffffffffffffffffffff1673ffffffffffffffffffffffffffffffffffffffff1673ffffffffffffffffffffffffffffffffffffffff168152602001908152602001600020805490508110156129ca5760006003600060018581548110612705576127046145c0565b5b9060005260206000200160009054906101000a900473ffffffffffffffffffffffffffffffffffffffff1673ffffffffffffffffffffffffffffffffffffffff1673ffffffffffffffffffffffffffffffffffffffff16815260200190815260200160002060006001846127799190614831565b815260200190815260200160002060003373ffffffffffffffffffffffffffffffffffffffff1673ffffffffffffffffffffffffffffffffffffffff16815260200190815260200160002060030154146129b75760036000600184815481106127e5576127e46145c0565b5b9060005260206000200160009054906101000a900473ffffffffffffffffffffffffffffffffffffffff1673ffffffffffffffffffffffffffffffffffffffff1673ffffffffffffffffffffffffffffffffffffffff16815260200190815260200160002060006001836128599190614831565b815260200190815260200160002060003373ffffffffffffffffffffffffffffffffffffffff1673ffffffffffffffffffffffffffffffffffffffff1681526020019081526020016000206040518060a00160405290816000820160009054906101000a900473ffffffffffffffffffffffffffffffffffffffff1673ffffffffffffffffffffffffffffffffffffffff1673ffffffffffffffffffffffffffffffffffffffff168152602001600182015481526020016002820160009054906101000a900473ffffffffffffffffffffffffffffffffffffffff1673ffffffffffffffffffffffffffffffffffffffff1673ffffffffffffffffffffffffffffffffffffffff168152602001600382015481526020016004820160009054906101000a900460ff16151515158152505084848151811061299d5761299c6145c0565b5b602002602001018190525082806129b3906141b0565b9350505b80806129c2906141b0565b915050612663565b5080806129d6906141b0565b915050612653565b5081935050505090565b6000600560003373ffffffffffffffffffffffffffffffffffffffff1673ffffffffffffffffffffffffffffffffffffffff1681526020019081526020016000206000015403612a6d576040517f08c379a0000000000000000000000000000000000000000000000000000000008152600401612a6490614ae4565b60405180910390fd5b80600660008473ffffffffffffffffffffffffffffffffffffffff1673ffffffffffffffffffffffffffffffffffffffff168152602001908152602001600020805490501015612af2576040517f08c379a0000000000000000000000000000000000000000000000000000000008152600401612ae9906149c0565b60405180910390fd5b600660008373ffffffffffffffffffffffffffffffffffffffff1673ffffffffffffffffffffffffffffffffffffffff168152602001908152602001600020600182612b3e919061458c565b81548110612b4f57612b4e6145c0565b5b906000526020600020906007020160050160009054906101000a900460ff16612bad576040517f08c379a0000000000000000000000000000000000000000000000000000000008152600401612ba490614b50565b60405180910390fd5b6000600360008473ffffffffffffffffffffffffffffffffffffffff1673ffffffffffffffffffffffffffffffffffffffff168152602001908152602001600020600083815260200190815260200160002060003373ffffffffffffffffffffffffffffffffffffffff1673ffffffffffffffffffffffffffffffffffffffff1681526020019081526020016000206003015414612c80576040517f08c379a0000000000000000000000000000000000000000000000000000000008152600401612c7790614be2565b60405180910390fd5b6040518060a001604052803373ffffffffffffffffffffffffffffffffffffffff1681526020018281526020018373ffffffffffffffffffffffffffffffffffffffff16815260200142815260200160001515815250600360008473ffffffffffffffffffffffffffffffffffffffff1673ffffffffffffffffffffffffffffffffffffffff168152602001908152602001600020600083815260200190815260200160002060003373ffffffffffffffffffffffffffffffffffffffff1673ffffffffffffffffffffffffffffffffffffffff16815260200190815260200160002060008201518160000160006101000a81548173ffffffffffffffffffffffffffffffffffffffff021916908373ffffffffffffffffffffffffffffffffffffffff1602179055506020820151816001015560408201518160020160006101000a81548173ffffffffffffffffffffffffffffffffffffffff021916908373ffffffffffffffffffffffffffffffffffffffff1602179055506060820151816003015560808201518160040160006101000a81548160ff0219169083151502179055509050508173ffffffffffffffffffffffffffffffffffffffff163373ffffffffffffffffffffffffffffffffffffffff167f8de0ed164957b2a0caaa6de9ec476188c588fd45ad3ab0b29ce414d5b1da04d08342604051612e87929190614c02565b60405180910390a35050565b60006060806060806000806000600560008a73ffffffffffffffffffffffffffffffffffffffff1673ffffffffffffffffffffffffffffffffffffffff1681526020019081526020016000206000015403612f23576040517f08c379a0000000000000000000000000000000000000000000000000000000008152600401612f1a90614c77565b60405180910390fd5b6000600560008a73ffffffffffffffffffffffffffffffffffffffff1673ffffffffffffffffffffffffffffffffffffffff1681526020019081526020016000206040518060e001604052908160008201548152602001600182018054612f8990614078565b80601f0160208091040260200160405190810160405280929190818152602001828054612fb590614078565b80156130025780601f10612fd757610100808354040283529160200191613002565b820191906000526020600020905b815481529060010190602001808311612fe557829003601f168201915b5050505050815260200160028201805461301b90614078565b80601f016020809104026020016040519081016040528092919081815260200182805461304790614078565b80156130945780601f1061306957610100808354040283529160200191613094565b820191906000526020600020905b81548152906001019060200180831161307757829003601f168201915b505050505081526020016003820180546130ad90614078565b80601f01602080910402602001604051908101604052809291908181526020018280546130d990614078565b80156131265780601f106130fb57610100808354040283529160200191613126565b820191906000526020600020905b81548152906001019060200180831161310957829003601f168201915b5050505050815260200160048201805461313f90614078565b80601f016020809104026020016040519081016040528092919081815260200182805461316b90614078565b80156131b85780601f1061318d576101008083540402835291602001916131b8565b820191906000526020600020905b81548152906001019060200180831161319b57829003601f168201915b50505050508152602001600582015481526020016006820160009054906101000a900473ffffffffffffffffffffffffffffffffffffffff1673ffffffffffffffffffffffffffffffffffffffff1673ffffffffffffffffffffffffffffffffffffffff16815250509050806020015196508060400151955080606001519450806080015193508060a0015191506001878787878d97509750975097509750975050919395979092949650565b60085481565b6040518060a00160405280600073ffffffffffffffffffffffffffffffffffffffff16815260200160008152602001600073ffffffffffffffffffffffffffffffffffffffff168152602001600081526020016000151581525090565b600081519050919050565b600082825260208201905092915050565b6000819050602082019050919050565b600073ffffffffffffffffffffffffffffffffffffffff82169050919050565b600061331f826132f4565b9050919050565b61332f81613314565b82525050565b60006133418383613326565b60208301905092915050565b6000602082019050919050565b6000613365826132c8565b61336f81856132d3565b935061337a836132e4565b8060005b838110156133ab5781516133928882613335565b975061339d8361334d565b92505060018101905061337e565b5085935050505092915050565b600060208201905081810360008301526133d2818461335a565b905092915050565b6000604051905090565b600080fd5b600080fd5b6133f781613314565b811461340257600080fd5b50565b600081359050613414816133ee565b92915050565b6000602082840312156134305761342f6133e4565b5b600061343e84828501613405565b91505092915050565b6000819050919050565b61345a81613447565b82525050565b600081519050919050565b600082825260208201905092915050565b60005b8381101561349a57808201518184015260208101905061347f565b60008484015250505050565b6000601f19601f8301169050919050565b60006134c282613460565b6134cc818561346b565b93506134dc81856020860161347c565b6134e5816134a6565b840191505092915050565b6134f981613314565b82525050565b600060a0820190506135146000830188613451565b818103602083015261352681876134b7565b9050818103604083015261353a81866134b7565b90506135496060830185613451565b61355660808301846134f0565b9695505050505050565b61356981613447565b811461357457600080fd5b50565b60008135905061358681613560565b92915050565b6000806000606084860312156135a5576135a46133e4565b5b60006135b386828701613405565b93505060206135c486828701613577565b92505060406135d586828701613405565b9150509250925092565b60008115159050919050565b6135f4816135df565b82525050565b600060a08201905061360f60008301886134f0565b61361c6020830187613451565b61362960408301866134f0565b6136366060830185613451565b61364360808301846135eb565b9695505050505050565b600080fd5b600080fd5b7f4e487b7100000000000000000000000000000000000000000000000000000000600052604160045260246000fd5b61368f826134a6565b810181811067ffffffffffffffff821117156136ae576136ad613657565b5b80604052505050565b60006136c16133da565b90506136cd8282613686565b919050565b600067ffffffffffffffff8211156136ed576136ec613657565b5b6136f6826134a6565b9050602081019050919050565b82818337600083830152505050565b6000613725613720846136d2565b6136b7565b90508281526020810184848401111561374157613740613652565b5b61374c848285613703565b509392505050565b600082601f8301126137695761376861364d565b5b8135613779848260208601613712565b91505092915050565b60008060006060848603121561379b5761379a6133e4565b5b600084013567ffffffffffffffff8111156137b9576137b86133e9565b5b6137c586828701613754565b935050602084013567ffffffffffffffff8111156137e6576137e56133e9565b5b6137f286828701613754565b925050604061380386828701613405565b9150509250925092565b613816816135df565b811461382157600080fd5b50565b6000813590506138338161380d565b92915050565b600080604083850312156138505761384f6133e4565b5b600061385e85828601613577565b925050602061386f85828601613824565b9150509250929050565b600060e08201905061388e600083018a613451565b81810360208301526138a081896134b7565b905081810360408301526138b481886134b7565b905081810360608301526138c881876134b7565b905081810360808301526138dc81866134b7565b90506138eb60a0830185613451565b6138f860c08301846134f0565b98975050505050505050565b60006020820190506139196000830184613451565b92915050565b600080600080600060a0868803121561393b5761393a6133e4565b5b600086013567ffffffffffffffff811115613959576139586133e9565b5b61396588828901613754565b955050602086013567ffffffffffffffff811115613986576139856133e9565b5b61399288828901613754565b945050604086013567ffffffffffffffff8111156139b3576139b26133e9565b5b6139bf88828901613754565b935050606086013567ffffffffffffffff8111156139e0576139df6133e9565b5b6139ec88828901613754565b92505060806139fd88828901613405565b9150509295509295909350565b600060c082019050613a1f60008301896135eb565b613a2c6020830188613451565b8181036040830152613a3e81876134b7565b90508181036060830152613a5281866134b7565b9050613a6160808301856134f0565b613a6e60a0830184613451565b979650505050505050565b60008060408385031215613a9057613a8f6133e4565b5b6000613a9e85828601613577565b9250506020613aaf85828601613405565b9150509250929050565b600081519050919050565b600082825260208201905092915050565b6000819050602082019050919050565b613aee81613447565b82525050565b600082825260208201905092915050565b6000613b1082613460565b613b1a8185613af4565b9350613b2a81856020860161347c565b613b33816134a6565b840191505092915050565b613b47816135df565b82525050565b600060e083016000830151613b656000860182613ae5565b5060208301518482036020860152613b7d8282613b05565b91505060408301518482036040860152613b978282613b05565b91505060608301518482036060860152613bb18282613b05565b91505060808301518482036080860152613bcb8282613b05565b91505060a0830151613be060a0860182613b3e565b5060c0830151613bf360c0860182613ae5565b508091505092915050565b6000613c0a8383613b4d565b905092915050565b6000602082019050919050565b6000613c2a82613ab9565b613c348185613ac4565b935083602082028501613c4685613ad5565b8060005b85811015613c825784840389528151613c638582613bfe565b9450613c6e83613c12565b925060208a01995050600181019050613c4a565b50829750879550505050505092915050565b60006020820190508181036000830152613cae8184613c1f565b905092915050565b60008060008060808587031215613cd057613ccf6133e4565b5b600085013567ffffffffffffffff811115613cee57613ced6133e9565b5b613cfa87828801613754565b945050602085013567ffffffffffffffff811115613d1b57613d1a6133e9565b5b613d2787828801613754565b935050604085013567ffffffffffffffff811115613d4857613d476133e9565b5b613d5487828801613754565b925050606085013567ffffffffffffffff811115613d7557613d746133e9565b5b613d8187828801613754565b91505092959194509250565b60008060408385031215613da457613da36133e4565b5b6000613db285828601613405565b9250506020613dc385828601613577565b9150509250929050565b600060e082019050613de2600083018a613451565b8181036020830152613df481896134b7565b90508181036040830152613e0881886134b7565b90508181036060830152613e1c81876134b7565b90508181036080830152613e3081866134b7565b9050613e3f60a08301856135eb565b613e4c60c0830184613451565b98975050505050505050565b600060208284031215613e6e57613e6d6133e4565b5b6000613e7c84828501613577565b91505092915050565b600081519050919050565b600082825260208201905092915050565b6000819050602082019050919050565b60a082016000820151613ec76000850182613326565b506020820151613eda6020850182613ae5565b506040820151613eed6040850182613326565b506060820151613f006060850182613ae5565b506080820151613f136080850182613b3e565b50505050565b6000613f258383613eb1565b60a08301905092915050565b6000602082019050919050565b6000613f4982613e85565b613f538185613e90565b9350613f5e83613ea1565b8060005b83811015613f8f578151613f768882613f19565b9750613f8183613f31565b925050600181019050613f62565b5085935050505092915050565b60006020820190508181036000830152613fb68184613f3e565b905092915050565b600060e082019050613fd3600083018a6135eb565b8181036020830152613fe581896134b7565b90508181036040830152613ff981886134b7565b9050818103606083015261400d81876134b7565b9050818103608083015261402181866134b7565b905061403060a08301856134f0565b61403d60c0830184613451565b98975050505050505050565b7f4e487b7100000000000000000000000000000000000000000000000000000000600052602260045260246000fd5b6000600282049050600182168061409057607f821691505b6020821081036140a3576140a2614049565b5b50919050565b7f4f6e6c79206f776e657220686173206163636573730000000000000000000000600082015250565b60006140df60158361346b565b91506140ea826140a9565b602082019050919050565b6000602082019050818103600083015261410e816140d2565b9050919050565b7f50726f766964657220616c726561647920657869737400000000000000000000600082015250565b600061414b60168361346b565b915061415682614115565b602082019050919050565b6000602082019050818103600083015261417a8161413e565b9050919050565b7f4e487b7100000000000000000000000000000000000000000000000000000000600052601160045260246000fd5b60006141bb82613447565b91507fffffffffffffffffffffffffffffffffffffffffffffffffffffffffffffffff82036141ed576141ec614181565b5b600182019050919050565b60008190508160005260206000209050919050565b60006020601f8301049050919050565b600082821b905092915050565b60006008830261425a7fffffffffffffffffffffffffffffffffffffffffffffffffffffffffffffffff8261421d565b614264868361421d565b95508019841693508086168417925050509392505050565b6000819050919050565b60006142a161429c61429784613447565b61427c565b613447565b9050919050565b6000819050919050565b6142bb83614286565b6142cf6142c7826142a8565b84845461422a565b825550505050565b600090565b6142e46142d7565b6142ef8184846142b2565b505050565b5b81811015614313576143086000826142dc565b6001810190506142f5565b5050565b601f82111561435857614329816141f8565b6143328461420d565b81016020851015614341578190505b61435561434d8561420d565b8301826142f4565b50505b505050565b600082821c905092915050565b600061437b6000198460080261435d565b1980831691505092915050565b6000614394838361436a565b9150826002028217905092915050565b6143ad82613460565b67ffffffffffffffff8111156143c6576143c5613657565b5b6143d08254614078565b6143db828285614317565b600060209050601f83116001811461440e57600084156143fc578287015190505b6144068582614388565b86555061446e565b601f19841661441c866141f8565b60005b828110156144445784890151825560018201915060208501945060208101905061441f565b86831015614461578489015161445d601f89168261436a565b8355505b6001600288020188555050505b505050505050565b600060608201905061448b6000830186613451565b818103602083015261449d81856134b7565b90506144ac60408301846134f0565b949350505050565b7f4e6f206a6f6220666f756e640000000000000000000000000000000000000000600082015250565b60006144ea600c8361346b565b91506144f5826144b4565b602082019050919050565b60006020820190508181036000830152614519816144dd565b9050919050565b7f4a6f62206964206f75746f66626f756e64000000000000000000000000000000600082015250565b600061455660118361346b565b915061456182614520565b602082019050919050565b6000602082019050818103600083015261458581614549565b9050919050565b600061459782613447565b91506145a283613447565b92508282039050818111156145ba576145b9614181565b5b92915050565b7f4e487b7100000000000000000000000000000000000000000000000000000000600052603260045260246000fd5b7f4a6f6220776974682074686973206964206e6f74206578697374000000000000600082015250565b6000614625601a8361346b565b9150614630826145ef565b602082019050919050565b6000602082019050818103600083015261465481614618565b9050919050565b7f50726f7669646572206e6f7420666f756e640000000000000000000000000000600082015250565b600061469160128361346b565b915061469c8261465b565b602082019050919050565b600060208201905081810360008301526146c081614684565b9050919050565b7f4f6e6c792070726f7669646572732063616e20616363657074206170706c696360008201527f6174696f6e730000000000000000000000000000000000000000000000000000602082015250565b600061472360268361346b565b915061472e826146c7565b604082019050919050565b6000602082019050818103600083015261475281614716565b9050919050565b7f4170706c69636174696f6e20646f6573206e6f74206578697374000000000000600082015250565b600061478f601a8361346b565b915061479a82614759565b602082019050919050565b600060208201905081810360008301526147be81614782565b9050919050565b7f6f6e6c792070726f76696465722063616e20616464206a6f6200000000000000600082015250565b60006147fb60198361346b565b9150614806826147c5565b602082019050919050565b6000602082019050818103600083015261482a816147ee565b9050919050565b600061483c82613447565b915061484783613447565b925082820190508082111561485f5761485e614181565b5b92915050565b600060c08201905061487a6000830189613451565b818103602083015261488c81886134b7565b905081810360408301526148a081876134b7565b905081810360608301526148b481866134b7565b905081810360808301526148c881856134b7565b90506148d760a0830184613451565b979650505050505050565b7f4f6e6c792070726f7669646572732063616e2076696577206170706c6963617460008201527f696f6e7300000000000000000000000000000000000000000000000000000000602082015250565b600061493e60248361346b565b9150614949826148e2565b604082019050919050565b6000602082019050818103600083015261496d81614931565b9050919050565b7f4a6f6220646f6573206e6f742065786973740000000000000000000000000000600082015250565b60006149aa60128361346b565b91506149b582614974565b602082019050919050565b600060208201905081810360008301526149d98161499d565b9050919050565b7f4f6e6c79207265676973746572656420776f726b6572732063616e207669657760008201527f207468656972206170706c69636174696f6e7300000000000000000000000000602082015250565b6000614a3c60338361346b565b9150614a47826149e0565b604082019050919050565b60006020820190508181036000830152614a6b81614a2f565b9050919050565b7f4f6e6c79207265676973746572656420776f726b6572732063616e206170706c60008201527f7920666f72206a6f627300000000000000000000000000000000000000000000602082015250565b6000614ace602a8361346b565b9150614ad982614a72565b604082019050919050565b60006020820190508181036000830152614afd81614ac1565b9050919050565b7f54686973206a6f62206973206e6f742061637469766500000000000000000000600082015250565b6000614b3a60168361346b565b9150614b4582614b04565b602082019050919050565b60006020820190508181036000830152614b6981614b2d565b9050919050565b7f596f75206861766520616c7265616479206170706c69656420666f722074686960008201527f73206a6f62000000000000000000000000000000000000000000000000000000602082015250565b6000614bcc60258361346b565b9150614bd782614b70565b604082019050919050565b60006020820190508181036000830152614bfb81614bbf565b9050919050565b6000604082019050614c176000830185613451565b614c246020830184613451565b9392505050565b7f576f726b6572206e6f7420666f756e6400000000000000000000000000000000600082015250565b6000614c6160108361346b565b9150614c6c82614c2b565b602082019050919050565b60006020820190508181036000830152614c9081614c54565b905091905056fea26469706673582212204562b1a3e1c44dad9bd1e9717ae328070b3d0d7e375f1230b5fb3d10dbf77d3c64736f6c63430008130033",
  "linkReferences": {},
  "deployedLinkReferences": {}
}