{
  "_format": "hh-sol-artifact-1",
  "contractName": "JobPortal",
  "sourceName": "contracts/Skilled.sol",
  "abi": [
    {
      "inputs": [],
      "stateMutability": "nonpayable",
      "type": "constructor"
    },
    {
      "anonymous": false,
      "inputs": [
        {
          "indexed": true,
          "internalType": "address",
          "name": "provider",
          "type": "address"
        },
        {
          "indexed": false,
          "internalType": "uint256",
          "name": "jobId",
          "type": "uint256"
        },
        {
          "indexed": false,
          "internalType": "string",
          "name": "title",
          "type": "string"
        }
      ],
      "name": "JobAdded",
      "type": "event"
    },
    {
      "anonymous": false,
      "inputs": [
        {
          "indexed": false,
          "internalType": "uint256",
          "name": "providerId",
          "type": "uint256"
        },
        {
          "indexed": false,
          "internalType": "string",
          "name": "name",
          "type": "string"
        },
        {
          "indexed": false,
          "internalType": "address",
          "name": "owner",
          "type": "address"
        }
      ],
      "name": "ProviderRegistered",
      "type": "event"
    },
    {
      "anonymous": false,
      "inputs": [
        {
          "indexed": false,
          "internalType": "uint256",
          "name": "workerId",
          "type": "uint256"
        },
        {
          "indexed": false,
          "internalType": "string",
          "name": "name",
          "type": "string"
        },
        {
          "indexed": false,
          "internalType": "address",
          "name": "owner",
          "type": "address"
        }
      ],
      "name": "WorkerRegistered",
      "type": "event"
    },
    {
      "inputs": [
        {
          "internalType": "string",
          "name": "_title",
          "type": "string"
        },
        {
          "internalType": "string",
          "name": "_description",
          "type": "string"
        },
        {
          "internalType": "string",
          "name": "_tag",
          "type": "string"
        }
      ],
      "name": "addJob",
      "outputs": [],
      "stateMutability": "nonpayable",
      "type": "function"
    },
    {
      "inputs": [],
      "name": "getAllProvider",
      "outputs": [
        {
          "internalType": "address[]",
          "name": "",
          "type": "address[]"
        }
      ],
      "stateMutability": "view",
      "type": "function"
    },
    {
      "inputs": [],
      "name": "getAllWorker",
      "outputs": [
        {
          "internalType": "address[]",
          "name": "",
          "type": "address[]"
        }
      ],
      "stateMutability": "view",
      "type": "function"
    },
    {
      "inputs": [],
      "name": "getJobs",
      "outputs": [
        {
          "components": [
            {
              "internalType": "uint256",
              "name": "id",
              "type": "uint256"
            },
            {
              "internalType": "string",
              "name": "title",
              "type": "string"
            },
            {
              "internalType": "string",
              "name": "description",
              "type": "string"
            },
            {
              "internalType": "string",
              "name": "tag",
              "type": "string"
            },
            {
              "internalType": "bool",
              "name": "isActive",
              "type": "bool"
            },
            {
              "internalType": "uint256",
              "name": "timestamp",
              "type": "uint256"
            }
          ],
          "internalType": "struct JobPortal.Job[]",
          "name": "",
          "type": "tuple[]"
        }
      ],
      "stateMutability": "view",
      "type": "function"
    },
    {
      "inputs": [
        {
          "internalType": "address",
          "name": "_walletAddress",
          "type": "address"
        }
      ],
      "name": "getProvider",
      "outputs": [
        {
          "internalType": "bool",
          "name": "found",
          "type": "bool"
        },
        {
          "internalType": "uint256",
          "name": "_id",
          "type": "uint256"
        },
        {
          "internalType": "string",
          "name": "_name",
          "type": "string"
        },
        {
          "internalType": "string",
          "name": "_email",
          "type": "string"
        },
        {
          "internalType": "address",
          "name": "__walletAddress",
          "type": "address"
        },
        {
          "internalType": "uint256",
          "name": "_timestamp",
          "type": "uint256"
        }
      ],
      "stateMutability": "view",
      "type": "function"
    },
    {
      "inputs": [
        {
          "internalType": "address",
          "name": "_walletAddress",
          "type": "address"
        }
      ],
      "name": "getWorker",
      "outputs": [
        {
          "internalType": "bool",
          "name": "found",
          "type": "bool"
        },
        {
          "internalType": "string",
          "name": "_name",
          "type": "string"
        },
        {
          "internalType": "string",
          "name": "_email",
          "type": "string"
        },
        {
          "internalType": "string",
          "name": "_experience",
          "type": "string"
        },
        {
          "internalType": "string",
          "name": "_skills",
          "type": "string"
        }
      ],
      "stateMutability": "view",
      "type": "function"
    },
    {
      "inputs": [
        {
          "internalType": "uint256",
          "name": "_id",
          "type": "uint256"
        },
        {
          "internalType": "bool",
          "name": "_isActive",
          "type": "bool"
        }
      ],
      "name": "jobStateChange",
      "outputs": [],
      "stateMutability": "nonpayable",
      "type": "function"
    },
    {
      "inputs": [
        {
          "internalType": "address",
          "name": "",
          "type": "address"
        },
        {
          "internalType": "uint256",
          "name": "",
          "type": "uint256"
        }
      ],
      "name": "jobs",
      "outputs": [
        {
          "internalType": "uint256",
          "name": "id",
          "type": "uint256"
        },
        {
          "internalType": "string",
          "name": "title",
          "type": "string"
        },
        {
          "internalType": "string",
          "name": "description",
          "type": "string"
        },
        {
          "internalType": "string",
          "name": "tag",
          "type": "string"
        },
        {
          "internalType": "bool",
          "name": "isActive",
          "type": "bool"
        },
        {
          "internalType": "uint256",
          "name": "timestamp",
          "type": "uint256"
        }
      ],
      "stateMutability": "view",
      "type": "function"
    },
    {
      "inputs": [],
      "name": "nextProviderId",
      "outputs": [
        {
          "internalType": "uint256",
          "name": "",
          "type": "uint256"
        }
      ],
      "stateMutability": "view",
      "type": "function"
    },
    {
      "inputs": [],
      "name": "nextWorkerId",
      "outputs": [
        {
          "internalType": "uint256",
          "name": "",
          "type": "uint256"
        }
      ],
      "stateMutability": "view",
      "type": "function"
    },
    {
      "inputs": [
        {
          "internalType": "address",
          "name": "",
          "type": "address"
        }
      ],
      "name": "providers",
      "outputs": [
        {
          "internalType": "uint256",
          "name": "id",
          "type": "uint256"
        },
        {
          "internalType": "string",
          "name": "name",
          "type": "string"
        },
        {
          "internalType": "string",
          "name": "email",
          "type": "string"
        },
        {
          "internalType": "uint256",
          "name": "timestamp",
          "type": "uint256"
        },
        {
          "internalType": "address",
          "name": "walletAddress",
          "type": "address"
        }
      ],
      "stateMutability": "view",
      "type": "function"
    },
    {
      "inputs": [
        {
          "internalType": "string",
          "name": "_name",
          "type": "string"
        },
        {
          "internalType": "string",
          "name": "_email",
          "type": "string"
        },
        {
          "internalType": "address",
          "name": "_walletAddress",
          "type": "address"
        }
      ],
      "name": "registerProvider",
      "outputs": [],
      "stateMutability": "nonpayable",
      "type": "function"
    },
    {
      "inputs": [
        {
          "internalType": "string",
          "name": "_name",
          "type": "string"
        },
        {
          "internalType": "string",
          "name": "_email",
          "type": "string"
        },
        {
          "internalType": "string",
          "name": "_experience",
          "type": "string"
        },
        {
          "internalType": "string",
          "name": "_skills",
          "type": "string"
        },
        {
          "internalType": "address",
          "name": "_walletAddress",
          "type": "address"
        }
      ],
      "name": "registerWorker",
      "outputs": [],
      "stateMutability": "nonpayable",
      "type": "function"
    },
    {
      "inputs": [
        {
          "internalType": "address",
          "name": "",
          "type": "address"
        }
      ],
      "name": "workers",
      "outputs": [
        {
          "internalType": "uint256",
          "name": "id",
          "type": "uint256"
        },
        {
          "internalType": "string",
          "name": "name",
          "type": "string"
        },
        {
          "internalType": "string",
          "name": "email",
          "type": "string"
        },
        {
          "internalType": "string",
          "name": "experience",
          "type": "string"
        },
        {
          "internalType": "string",
          "name": "skills",
          "type": "string"
        },
        {
          "internalType": "uint256",
          "name": "timestamp",
          "type": "uint256"
        },
        {
          "internalType": "address",
          "name": "walletAddress",
          "type": "address"
        }
      ],
      "stateMutability": "view",
      "type": "function"
    }
  ],
  "bytecode": "0x608060405234801561001057600080fd5b50336000806101000a81548173ffffffffffffffffffffffffffffffffffffffff021916908373ffffffffffffffffffffffffffffffffffffffff160217905550612f09806100606000396000f3fe608060405234801561001057600080fd5b50600436106100ea5760003560e01c80635351e0151161008c5780636bfd0415116100665780636bfd0415146102585780636f82f8fd14610276578063c011b1c3146102ab578063c84a4922146102df576100ea565b80635351e015146101e957806355f21eb71461020557806368581ebd1461023a576100ea565b80631a7e1acc116100c85780631a7e1acc1461015d57806328f76943146101795780634048a2571461019557806351a8dbcf146101cb576100ea565b806304e70ca6146100ef5780630787bc271461010d57806316f665d114610141575b600080fd5b6100f76102fd565b6040516101049190611deb565b60405180910390f35b61012760048036038101906101229190611e4d565b61038b565b604051610138959493929190611f32565b60405180910390f35b61015b600480360381019061015691906120c8565b6104f1565b005b610177600480360381019061017291906121b7565b6107c9565b005b610193600480360381019061018e91906121f7565b610a0e565b005b6101af60048036038101906101aa9190611e4d565b610bfc565b6040516101c2979695949392919061229e565b60405180910390f35b6101d3610e7e565b6040516101e09190612329565b60405180910390f35b61020360048036038101906101fe9190612344565b610e84565b005b61021f600480360381019061021a9190611e4d565b611111565b6040516102319695949392919061243e565b60405180910390f35b6102426113ac565b60405161024f919061266e565b60405180910390f35b6102606116b2565b60405161026d9190611deb565b60405180910390f35b610290600480360381019061028b9190612690565b611740565b6040516102a2969594939291906126d0565b60405180910390f35b6102c560048036038101906102c09190611e4d565b61193e565b6040516102d6959493929190612746565b60405180910390f35b6102e7611cf5565b6040516102f49190612329565b60405180910390f35b6060600280548060200260200160405190810160405280929190818152602001828054801561038157602002820191906000526020600020905b8160009054906101000a900473ffffffffffffffffffffffffffffffffffffffff1673ffffffffffffffffffffffffffffffffffffffff1681526020019060010190808311610337575b5050505050905090565b60036020528060005260406000206000915090508060000154908060010180546103b4906127e4565b80601f01602080910402602001604051908101604052809291908181526020018280546103e0906127e4565b801561042d5780601f106104025761010080835404028352916020019161042d565b820191906000526020600020905b81548152906001019060200180831161041057829003601f168201915b505050505090806002018054610442906127e4565b80601f016020809104026020016040519081016040528092919081815260200182805461046e906127e4565b80156104bb5780601f10610490576101008083540402835291602001916104bb565b820191906000526020600020905b81548152906001019060200180831161049e57829003601f168201915b5050505050908060030154908060040160009054906101000a900473ffffffffffffffffffffffffffffffffffffffff16905085565b60008054906101000a900473ffffffffffffffffffffffffffffffffffffffff1673ffffffffffffffffffffffffffffffffffffffff163373ffffffffffffffffffffffffffffffffffffffff161461057f576040517f08c379a000000000000000000000000000000000000000000000000000000000815260040161057690612861565b60405180910390fd5b6000600360008373ffffffffffffffffffffffffffffffffffffffff1673ffffffffffffffffffffffffffffffffffffffff1681526020019081526020016000206000015414610604576040517f08c379a00000000000000000000000000000000000000000000000000000000081526004016105fb906128cd565b60405180910390fd5b600660008154809291906106179061291c565b91905055506040518060a0016040528060065481526020018481526020018381526020014281526020018273ffffffffffffffffffffffffffffffffffffffff16815250600360008373ffffffffffffffffffffffffffffffffffffffff1673ffffffffffffffffffffffffffffffffffffffff1681526020019081526020016000206000820151816000015560208201518160010190816106b99190612b10565b5060408201518160020190816106cf9190612b10565b506060820151816003015560808201518160040160006101000a81548173ffffffffffffffffffffffffffffffffffffffff021916908373ffffffffffffffffffffffffffffffffffffffff1602179055509050506001819080600181540180825580915050600190039060005260206000200160009091909190916101000a81548173ffffffffffffffffffffffffffffffffffffffff021916908373ffffffffffffffffffffffffffffffffffffffff1602179055507fc18d7c6898e7069714655160c92f5b464967bd122287b01ed2c0331d086e0c1860065484836040516107bc93929190612be2565b60405180910390a1505050565b6000600560003373ffffffffffffffffffffffffffffffffffffffff1673ffffffffffffffffffffffffffffffffffffffff168152602001908152602001600020805490501161084e576040517f08c379a000000000000000000000000000000000000000000000000000000000815260040161084590612c6c565b60405180910390fd5b600560003373ffffffffffffffffffffffffffffffffffffffff1673ffffffffffffffffffffffffffffffffffffffff168152602001908152602001600020805490508211156108d3576040517f08c379a00000000000000000000000000000000000000000000000000000000081526004016108ca90612cd8565b60405180910390fd5b6000600560003373ffffffffffffffffffffffffffffffffffffffff1673ffffffffffffffffffffffffffffffffffffffff1681526020019081526020016000206001846109219190612cf8565b8154811061093257610931612d2c565b5b90600052602060002090600602016000015403610984576040517f08c379a000000000000000000000000000000000000000000000000000000000815260040161097b90612da7565b60405180910390fd5b80600560003373ffffffffffffffffffffffffffffffffffffffff1673ffffffffffffffffffffffffffffffffffffffff1681526020019081526020016000206001846109d19190612cf8565b815481106109e2576109e1612d2c565b5b906000526020600020906006020160040160006101000a81548160ff0219169083151502179055505050565b6000600360003373ffffffffffffffffffffffffffffffffffffffff1673ffffffffffffffffffffffffffffffffffffffff1681526020019081526020016000206000015403610a93576040517f08c379a0000000000000000000000000000000000000000000000000000000008152600401610a8a90612e13565b60405180910390fd5b60006001600560003373ffffffffffffffffffffffffffffffffffffffff1673ffffffffffffffffffffffffffffffffffffffff16815260200190815260200160002080549050610ae49190612e33565b9050600560003373ffffffffffffffffffffffffffffffffffffffff1673ffffffffffffffffffffffffffffffffffffffff1681526020019081526020016000206040518060c00160405280838152602001868152602001858152602001848152602001600115158152602001428152509080600181540180825580915050600190039060005260206000209060060201600090919091909150600082015181600001556020820151816001019081610b9d9190612b10565b506040820151816002019081610bb39190612b10565b506060820151816003019081610bc99190612b10565b5060808201518160040160006101000a81548160ff02191690831515021790555060a08201518160050155505050505050565b6004602052806000526040600020600091509050806000015490806001018054610c25906127e4565b80601f0160208091040260200160405190810160405280929190818152602001828054610c51906127e4565b8015610c9e5780601f10610c7357610100808354040283529160200191610c9e565b820191906000526020600020905b815481529060010190602001808311610c8157829003601f168201915b505050505090806002018054610cb3906127e4565b80601f0160208091040260200160405190810160405280929190818152602001828054610cdf906127e4565b8015610d2c5780601f10610d0157610100808354040283529160200191610d2c565b820191906000526020600020905b815481529060010190602001808311610d0f57829003601f168201915b505050505090806003018054610d41906127e4565b80601f0160208091040260200160405190810160405280929190818152602001828054610d6d906127e4565b8015610dba5780601f10610d8f57610100808354040283529160200191610dba565b820191906000526020600020905b815481529060010190602001808311610d9d57829003601f168201915b505050505090806004018054610dcf906127e4565b80601f0160208091040260200160405190810160405280929190818152602001828054610dfb906127e4565b8015610e485780601f10610e1d57610100808354040283529160200191610e48565b820191906000526020600020905b815481529060010190602001808311610e2b57829003601f168201915b5050505050908060050154908060060160009054906101000a900473ffffffffffffffffffffffffffffffffffffffff16905087565b60065481565b60008054906101000a900473ffffffffffffffffffffffffffffffffffffffff1673ffffffffffffffffffffffffffffffffffffffff163373ffffffffffffffffffffffffffffffffffffffff1614610f12576040517f08c379a0000000000000000000000000000000000000000000000000000000008152600401610f0990612861565b60405180910390fd5b60076000815480929190610f259061291c565b91905055506040518060e0016040528060075481526020018681526020018581526020018481526020018381526020014281526020018273ffffffffffffffffffffffffffffffffffffffff16815250600460008373ffffffffffffffffffffffffffffffffffffffff1673ffffffffffffffffffffffffffffffffffffffff168152602001908152602001600020600082015181600001556020820151816001019081610fd39190612b10565b506040820151816002019081610fe99190612b10565b506060820151816003019081610fff9190612b10565b5060808201518160040190816110159190612b10565b5060a0820151816005015560c08201518160060160006101000a81548173ffffffffffffffffffffffffffffffffffffffff021916908373ffffffffffffffffffffffffffffffffffffffff1602179055509050506002819080600181540180825580915050600190039060005260206000200160009091909190916101000a81548173ffffffffffffffffffffffffffffffffffffffff021916908373ffffffffffffffffffffffffffffffffffffffff1602179055507fe1968ed708177421106ab22cb993650a9e3bd793ebe1a805a1a49423cf050e39600654868360405161110293929190612be2565b60405180910390a15050505050565b6000806060806000806000600360008973ffffffffffffffffffffffffffffffffffffffff1673ffffffffffffffffffffffffffffffffffffffff168152602001908152602001600020600001540361119f576040517f08c379a000000000000000000000000000000000000000000000000000000000815260040161119690612eb3565b60405180910390fd5b6000600360008973ffffffffffffffffffffffffffffffffffffffff1673ffffffffffffffffffffffffffffffffffffffff1681526020019081526020016000206040518060a001604052908160008201548152602001600182018054611205906127e4565b80601f0160208091040260200160405190810160405280929190818152602001828054611231906127e4565b801561127e5780601f106112535761010080835404028352916020019161127e565b820191906000526020600020905b81548152906001019060200180831161126157829003601f168201915b50505050508152602001600282018054611297906127e4565b80601f01602080910402602001604051908101604052809291908181526020018280546112c3906127e4565b80156113105780601f106112e557610100808354040283529160200191611310565b820191906000526020600020905b8154815290600101906020018083116112f357829003601f168201915b50505050508152602001600382015481526020016004820160009054906101000a900473ffffffffffffffffffffffffffffffffffffffff1673ffffffffffffffffffffffffffffffffffffffff1673ffffffffffffffffffffffffffffffffffffffff168152505090508060000151955080602001519450806040015193508060800151925080606001519150600196505091939550919395565b60606000600560003373ffffffffffffffffffffffffffffffffffffffff1673ffffffffffffffffffffffffffffffffffffffff1681526020019081526020016000208054905011611433576040517f08c379a000000000000000000000000000000000000000000000000000000000815260040161142a90612c6c565b60405180910390fd5b600560003373ffffffffffffffffffffffffffffffffffffffff1673ffffffffffffffffffffffffffffffffffffffff168152602001908152602001600020805480602002602001604051908101604052809291908181526020016000905b828210156116a957838290600052602060002090600602016040518060c0016040529081600082015481526020016001820180546114cf906127e4565b80601f01602080910402602001604051908101604052809291908181526020018280546114fb906127e4565b80156115485780601f1061151d57610100808354040283529160200191611548565b820191906000526020600020905b81548152906001019060200180831161152b57829003601f168201915b50505050508152602001600282018054611561906127e4565b80601f016020809104026020016040519081016040528092919081815260200182805461158d906127e4565b80156115da5780601f106115af576101008083540402835291602001916115da565b820191906000526020600020905b8154815290600101906020018083116115bd57829003601f168201915b505050505081526020016003820180546115f3906127e4565b80601f016020809104026020016040519081016040528092919081815260200182805461161f906127e4565b801561166c5780601f106116415761010080835404028352916020019161166c565b820191906000526020600020905b81548152906001019060200180831161164f57829003601f168201915b505050505081526020016004820160009054906101000a900460ff1615151515815260200160058201548152505081526020019060010190611492565b50505050905090565b6060600180548060200260200160405190810160405280929190818152602001828054801561173657602002820191906000526020600020905b8160009054906101000a900473ffffffffffffffffffffffffffffffffffffffff1673ffffffffffffffffffffffffffffffffffffffff16815260200190600101908083116116ec575b5050505050905090565b6005602052816000526040600020818154811061175c57600080fd5b906000526020600020906006020160009150915050806000015490806001018054611786906127e4565b80601f01602080910402602001604051908101604052809291908181526020018280546117b2906127e4565b80156117ff5780601f106117d4576101008083540402835291602001916117ff565b820191906000526020600020905b8154815290600101906020018083116117e257829003601f168201915b505050505090806002018054611814906127e4565b80601f0160208091040260200160405190810160405280929190818152602001828054611840906127e4565b801561188d5780601f106118625761010080835404028352916020019161188d565b820191906000526020600020905b81548152906001019060200180831161187057829003601f168201915b5050505050908060030180546118a2906127e4565b80601f01602080910402602001604051908101604052809291908181526020018280546118ce906127e4565b801561191b5780601f106118f05761010080835404028352916020019161191b565b820191906000526020600020905b8154815290600101906020018083116118fe57829003601f168201915b5050505050908060040160009054906101000a900460ff16908060050154905086565b60006060806060806000600460008873ffffffffffffffffffffffffffffffffffffffff1673ffffffffffffffffffffffffffffffffffffffff16815260200190815260200160002060000154036119cb576040517f08c379a00000000000000000000000000000000000000000000000000000000081526004016119c290612eb3565b60405180910390fd5b6000600460008873ffffffffffffffffffffffffffffffffffffffff1673ffffffffffffffffffffffffffffffffffffffff1681526020019081526020016000206040518060e001604052908160008201548152602001600182018054611a31906127e4565b80601f0160208091040260200160405190810160405280929190818152602001828054611a5d906127e4565b8015611aaa5780601f10611a7f57610100808354040283529160200191611aaa565b820191906000526020600020905b815481529060010190602001808311611a8d57829003601f168201915b50505050508152602001600282018054611ac3906127e4565b80601f0160208091040260200160405190810160405280929190818152602001828054611aef906127e4565b8015611b3c5780601f10611b1157610100808354040283529160200191611b3c565b820191906000526020600020905b815481529060010190602001808311611b1f57829003601f168201915b50505050508152602001600382018054611b55906127e4565b80601f0160208091040260200160405190810160405280929190818152602001828054611b81906127e4565b8015611bce5780601f10611ba357610100808354040283529160200191611bce565b820191906000526020600020905b815481529060010190602001808311611bb157829003601f168201915b50505050508152602001600482018054611be7906127e4565b80601f0160208091040260200160405190810160405280929190818152602001828054611c13906127e4565b8015611c605780601f10611c3557610100808354040283529160200191611c60565b820191906000526020600020905b815481529060010190602001808311611c4357829003601f168201915b50505050508152602001600582015481526020016006820160009054906101000a900473ffffffffffffffffffffffffffffffffffffffff1673ffffffffffffffffffffffffffffffffffffffff1673ffffffffffffffffffffffffffffffffffffffff1681525050905080602001519450806040015193508060600151925080608001519150600195505091939590929450565b60075481565b600081519050919050565b600082825260208201905092915050565b6000819050602082019050919050565b600073ffffffffffffffffffffffffffffffffffffffff82169050919050565b6000611d5282611d27565b9050919050565b611d6281611d47565b82525050565b6000611d748383611d59565b60208301905092915050565b6000602082019050919050565b6000611d9882611cfb565b611da28185611d06565b9350611dad83611d17565b8060005b83811015611dde578151611dc58882611d68565b9750611dd083611d80565b925050600181019050611db1565b5085935050505092915050565b60006020820190508181036000830152611e058184611d8d565b905092915050565b6000604051905090565b600080fd5b600080fd5b611e2a81611d47565b8114611e3557600080fd5b50565b600081359050611e4781611e21565b92915050565b600060208284031215611e6357611e62611e17565b5b6000611e7184828501611e38565b91505092915050565b6000819050919050565b611e8d81611e7a565b82525050565b600081519050919050565b600082825260208201905092915050565b60005b83811015611ecd578082015181840152602081019050611eb2565b60008484015250505050565b6000601f19601f8301169050919050565b6000611ef582611e93565b611eff8185611e9e565b9350611f0f818560208601611eaf565b611f1881611ed9565b840191505092915050565b611f2c81611d47565b82525050565b600060a082019050611f476000830188611e84565b8181036020830152611f598187611eea565b90508181036040830152611f6d8186611eea565b9050611f7c6060830185611e84565b611f896080830184611f23565b9695505050505050565b600080fd5b600080fd5b7f4e487b7100000000000000000000000000000000000000000000000000000000600052604160045260246000fd5b611fd582611ed9565b810181811067ffffffffffffffff82111715611ff457611ff3611f9d565b5b80604052505050565b6000612007611e0d565b90506120138282611fcc565b919050565b600067ffffffffffffffff82111561203357612032611f9d565b5b61203c82611ed9565b9050602081019050919050565b82818337600083830152505050565b600061206b61206684612018565b611ffd565b90508281526020810184848401111561208757612086611f98565b5b612092848285612049565b509392505050565b600082601f8301126120af576120ae611f93565b5b81356120bf848260208601612058565b91505092915050565b6000806000606084860312156120e1576120e0611e17565b5b600084013567ffffffffffffffff8111156120ff576120fe611e1c565b5b61210b8682870161209a565b935050602084013567ffffffffffffffff81111561212c5761212b611e1c565b5b6121388682870161209a565b925050604061214986828701611e38565b9150509250925092565b61215c81611e7a565b811461216757600080fd5b50565b60008135905061217981612153565b92915050565b60008115159050919050565b6121948161217f565b811461219f57600080fd5b50565b6000813590506121b18161218b565b92915050565b600080604083850312156121ce576121cd611e17565b5b60006121dc8582860161216a565b92505060206121ed858286016121a2565b9150509250929050565b6000806000606084860312156122105761220f611e17565b5b600084013567ffffffffffffffff81111561222e5761222d611e1c565b5b61223a8682870161209a565b935050602084013567ffffffffffffffff81111561225b5761225a611e1c565b5b6122678682870161209a565b925050604084013567ffffffffffffffff81111561228857612287611e1c565b5b6122948682870161209a565b9150509250925092565b600060e0820190506122b3600083018a611e84565b81810360208301526122c58189611eea565b905081810360408301526122d98188611eea565b905081810360608301526122ed8187611eea565b905081810360808301526123018186611eea565b905061231060a0830185611e84565b61231d60c0830184611f23565b98975050505050505050565b600060208201905061233e6000830184611e84565b92915050565b600080600080600060a086880312156123605761235f611e17565b5b600086013567ffffffffffffffff81111561237e5761237d611e1c565b5b61238a8882890161209a565b955050602086013567ffffffffffffffff8111156123ab576123aa611e1c565b5b6123b78882890161209a565b945050604086013567ffffffffffffffff8111156123d8576123d7611e1c565b5b6123e48882890161209a565b935050606086013567ffffffffffffffff81111561240557612404611e1c565b5b6124118882890161209a565b925050608061242288828901611e38565b9150509295509295909350565b6124388161217f565b82525050565b600060c082019050612453600083018961242f565b6124606020830188611e84565b81810360408301526124728187611eea565b905081810360608301526124868186611eea565b90506124956080830185611f23565b6124a260a0830184611e84565b979650505050505050565b600081519050919050565b600082825260208201905092915050565b6000819050602082019050919050565b6124e281611e7a565b82525050565b600082825260208201905092915050565b600061250482611e93565b61250e81856124e8565b935061251e818560208601611eaf565b61252781611ed9565b840191505092915050565b61253b8161217f565b82525050565b600060c08301600083015161255960008601826124d9565b506020830151848203602086015261257182826124f9565b9150506040830151848203604086015261258b82826124f9565b915050606083015184820360608601526125a582826124f9565b91505060808301516125ba6080860182612532565b5060a08301516125cd60a08601826124d9565b508091505092915050565b60006125e48383612541565b905092915050565b6000602082019050919050565b6000612604826124ad565b61260e81856124b8565b935083602082028501612620856124c9565b8060005b8581101561265c578484038952815161263d85826125d8565b9450612648836125ec565b925060208a01995050600181019050612624565b50829750879550505050505092915050565b6000602082019050818103600083015261268881846125f9565b905092915050565b600080604083850312156126a7576126a6611e17565b5b60006126b585828601611e38565b92505060206126c68582860161216a565b9150509250929050565b600060c0820190506126e56000830189611e84565b81810360208301526126f78188611eea565b9050818103604083015261270b8187611eea565b9050818103606083015261271f8186611eea565b905061272e608083018561242f565b61273b60a0830184611e84565b979650505050505050565b600060a08201905061275b600083018861242f565b818103602083015261276d8187611eea565b905081810360408301526127818186611eea565b905081810360608301526127958185611eea565b905081810360808301526127a98184611eea565b90509695505050505050565b7f4e487b7100000000000000000000000000000000000000000000000000000000600052602260045260246000fd5b600060028204905060018216806127fc57607f821691505b60208210810361280f5761280e6127b5565b5b50919050565b7f6f6e6c79206f776e657220686176652061636365737300000000000000000000600082015250565b600061284b601683611e9e565b915061285682612815565b602082019050919050565b6000602082019050818103600083015261287a8161283e565b9050919050565b7f50726f766964657220616c726561647920657869737473000000000000000000600082015250565b60006128b7601783611e9e565b91506128c282612881565b602082019050919050565b600060208201905081810360008301526128e6816128aa565b9050919050565b7f4e487b7100000000000000000000000000000000000000000000000000000000600052601160045260246000fd5b600061292782611e7a565b91507fffffffffffffffffffffffffffffffffffffffffffffffffffffffffffffffff8203612959576129586128ed565b5b600182019050919050565b60008190508160005260206000209050919050565b60006020601f8301049050919050565b600082821b905092915050565b6000600883026129c67fffffffffffffffffffffffffffffffffffffffffffffffffffffffffffffffff82612989565b6129d08683612989565b95508019841693508086168417925050509392505050565b6000819050919050565b6000612a0d612a08612a0384611e7a565b6129e8565b611e7a565b9050919050565b6000819050919050565b612a27836129f2565b612a3b612a3382612a14565b848454612996565b825550505050565b600090565b612a50612a43565b612a5b818484612a1e565b505050565b5b81811015612a7f57612a74600082612a48565b600181019050612a61565b5050565b601f821115612ac457612a9581612964565b612a9e84612979565b81016020851015612aad578190505b612ac1612ab985612979565b830182612a60565b50505b505050565b600082821c905092915050565b6000612ae760001984600802612ac9565b1980831691505092915050565b6000612b008383612ad6565b9150826002028217905092915050565b612b1982611e93565b67ffffffffffffffff811115612b3257612b31611f9d565b5b612b3c82546127e4565b612b47828285612a83565b600060209050601f831160018114612b7a5760008415612b68578287015190505b612b728582612af4565b865550612bda565b601f198416612b8886612964565b60005b82811015612bb057848901518255600182019150602085019450602081019050612b8b565b86831015612bcd5784890151612bc9601f891682612ad6565b8355505b6001600288020188555050505b505050505050565b6000606082019050612bf76000830186611e84565b8181036020830152612c098185611eea565b9050612c186040830184611f23565b949350505050565b7f6e6f206a6f6220666f756e640000000000000000000000000000000000000000600082015250565b6000612c56600c83611e9e565b9150612c6182612c20565b602082019050919050565b60006020820190508181036000830152612c8581612c49565b9050919050565b7f4a6f62204944206f7574206f6620626f756e6473000000000000000000000000600082015250565b6000612cc2601483611e9e565b9150612ccd82612c8c565b602082019050919050565b60006020820190508181036000830152612cf181612cb5565b9050919050565b6000612d0382611e7a565b9150612d0e83611e7a565b9250828203905081811115612d2657612d256128ed565b5b92915050565b7f4e487b7100000000000000000000000000000000000000000000000000000000600052603260045260246000fd5b7f4a6f622077697468207468697320696420646f6573206e6f7420657869737400600082015250565b6000612d91601f83611e9e565b9150612d9c82612d5b565b602082019050919050565b60006020820190508181036000830152612dc081612d84565b9050919050565b7f4f6e6c792070726f7669646572732063616e20616464206a6f62000000000000600082015250565b6000612dfd601a83611e9e565b9150612e0882612dc7565b602082019050919050565b60006020820190508181036000830152612e2c81612df0565b9050919050565b6000612e3e82611e7a565b9150612e4983611e7a565b9250828201905080821115612e6157612e606128ed565b5b92915050565b7f70726f66696c6520206e6f742065786973742000000000000000000000000000600082015250565b6000612e9d601383611e9e565b9150612ea882612e67565b602082019050919050565b60006020820190508181036000830152612ecc81612e90565b905091905056fea2646970667358221220d9ae2a4fc8e44d3a79fc6b652cd726467ddfc5ce7a70ab3a35d77b4f634cd31464736f6c63430008130033",
  "linkReferences": {},
  "deployedLinkReferences": {}
}